{
	"contracts/Programs/Struct.sol": {
		"Struct": {
			"abi": [
				{
					"inputs": [
						{
							"internalType": "string",
							"name": "_text",
							"type": "string"
						}
					],
					"name": "create",
					"outputs": [],
					"stateMutability": "nonpayable",
					"type": "function"
				},
				{
					"inputs": [
						{
							"internalType": "uint256",
							"name": "_index",
							"type": "uint256"
						}
					],
					"name": "get",
					"outputs": [
						{
							"internalType": "string",
							"name": "",
							"type": "string"
						},
						{
							"internalType": "bool",
							"name": "",
							"type": "bool"
						}
					],
					"stateMutability": "view",
					"type": "function"
				},
				{
					"inputs": [
						{
							"internalType": "uint256",
							"name": "",
							"type": "uint256"
						}
					],
					"name": "todos",
					"outputs": [
						{
							"internalType": "string",
							"name": "text",
							"type": "string"
						},
						{
							"internalType": "bool",
							"name": "completed",
							"type": "bool"
						}
					],
					"stateMutability": "view",
					"type": "function"
				},
				{
					"inputs": [
						{
							"internalType": "uint256",
							"name": "_index",
							"type": "uint256"
						},
						{
							"internalType": "string",
							"name": "_text",
							"type": "string"
						}
					],
					"name": "updateText",
					"outputs": [],
					"stateMutability": "nonpayable",
					"type": "function"
				},
				{
					"inputs": [
						{
							"internalType": "uint256",
							"name": "_index",
							"type": "uint256"
						},
						{
							"internalType": "string",
							"name": "_text",
							"type": "string"
						}
					],
					"name": "updateText2",
					"outputs": [],
					"stateMutability": "nonpayable",
					"type": "function"
				}
			],
			"devdoc": {
				"kind": "dev",
				"methods": {},
				"version": 1
			},
			"evm": {
				"assembly": "    /* \"contracts/Programs/Struct.sol\":58:812  contract Struct{... */\n  mstore(0x40, 0x80)\n  callvalue\n  dup1\n  iszero\n  tag_1\n  jumpi\n  0x00\n  dup1\n  revert\ntag_1:\n  pop\n  dataSize(sub_0)\n  dup1\n  dataOffset(sub_0)\n  0x00\n  codecopy\n  0x00\n  return\nstop\n\nsub_0: assembly {\n        /* \"contracts/Programs/Struct.sol\":58:812  contract Struct{... */\n      mstore(0x40, 0x80)\n      callvalue\n      dup1\n      iszero\n      tag_1\n      jumpi\n      0x00\n      dup1\n      revert\n    tag_1:\n      pop\n      jumpi(tag_2, lt(calldatasize, 0x04))\n      shr(0xe0, calldataload(0x00))\n      dup1\n      0x9507d39a\n      eq\n      tag_3\n      jumpi\n      dup1\n      0xb49ff8b1\n      eq\n      tag_4\n      jumpi\n      dup1\n      0xb6a46b3b\n      eq\n      tag_5\n      jumpi\n      dup1\n      0xbc8bc2b4\n      eq\n      tag_6\n      jumpi\n      dup1\n      0xcd111614\n      eq\n      tag_7\n      jumpi\n    tag_2:\n      0x00\n      dup1\n      revert\n        /* \"contracts/Programs/Struct.sol\":645:809  function get(uint _index) external view returns(string memory, bool) {... */\n    tag_3:\n      tag_8\n      0x04\n      dup1\n      calldatasize\n      sub\n      dup2\n      add\n      swap1\n      tag_9\n      swap2\n      swap1\n      tag_10\n      jump\t// in\n    tag_9:\n      tag_11\n      jump\t// in\n    tag_8:\n      mload(0x40)\n      tag_12\n      swap3\n      swap2\n      swap1\n      tag_13\n      jump\t// in\n    tag_12:\n      mload(0x40)\n      dup1\n      swap2\n      sub\n      swap1\n      return\n        /* \"contracts/Programs/Struct.sol\":491:637  function updateText2(uint _index, string calldata _text) external {... */\n    tag_4:\n      tag_14\n      0x04\n      dup1\n      calldatasize\n      sub\n      dup2\n      add\n      swap1\n      tag_15\n      swap2\n      swap1\n      tag_16\n      jump\t// in\n    tag_15:\n      tag_17\n      jump\t// in\n    tag_14:\n      stop\n        /* \"contracts/Programs/Struct.sol\":180:367  function create(string calldata _text) external{... */\n    tag_5:\n      tag_18\n      0x04\n      dup1\n      calldatasize\n      sub\n      dup2\n      add\n      swap1\n      tag_19\n      swap2\n      swap1\n      tag_20\n      jump\t// in\n    tag_19:\n      tag_21\n      jump\t// in\n    tag_18:\n      stop\n        /* \"contracts/Programs/Struct.sol\":152:171  Todo[] public todos */\n    tag_6:\n      tag_22\n      0x04\n      dup1\n      calldatasize\n      sub\n      dup2\n      add\n      swap1\n      tag_23\n      swap2\n      swap1\n      tag_10\n      jump\t// in\n    tag_23:\n      tag_24\n      jump\t// in\n    tag_22:\n      mload(0x40)\n      tag_25\n      swap3\n      swap2\n      swap1\n      tag_13\n      jump\t// in\n    tag_25:\n      mload(0x40)\n      dup1\n      swap2\n      sub\n      swap1\n      return\n        /* \"contracts/Programs/Struct.sol\":375:485  function updateText(uint _index, string calldata _text) external {... */\n    tag_7:\n      tag_26\n      0x04\n      dup1\n      calldatasize\n      sub\n      dup2\n      add\n      swap1\n      tag_27\n      swap2\n      swap1\n      tag_16\n      jump\t// in\n    tag_27:\n      tag_28\n      jump\t// in\n    tag_26:\n      stop\n        /* \"contracts/Programs/Struct.sol\":645:809  function get(uint _index) external view returns(string memory, bool) {... */\n    tag_11:\n        /* \"contracts/Programs/Struct.sol\":693:706  string memory */\n      0x60\n        /* \"contracts/Programs/Struct.sol\":708:712  bool */\n      0x00\n        /* \"contracts/Programs/Struct.sol\":725:741  Todo memory todo */\n      dup1\n        /* \"contracts/Programs/Struct.sol\":744:749  todos */\n      0x00\n        /* \"contracts/Programs/Struct.sol\":750:756  _index */\n      dup5\n        /* \"contracts/Programs/Struct.sol\":744:757  todos[_index] */\n      dup2\n      sload\n      dup2\n      lt\n      tag_30\n      jumpi\n      tag_31\n      tag_32\n      jump\t// in\n    tag_31:\n    tag_30:\n      swap1\n      0x00\n      mstore\n      keccak256(0x00, 0x20)\n      swap1\n      0x02\n      mul\n      add\n        /* \"contracts/Programs/Struct.sol\":725:757  Todo memory todo = todos[_index] */\n      mload(0x40)\n      dup1\n      0x40\n      add\n      0x40\n      mstore\n      swap1\n      dup2\n      0x00\n      dup3\n      add\n      dup1\n      sload\n      tag_34\n      swap1\n      tag_35\n      jump\t// in\n    tag_34:\n      dup1\n      0x1f\n      add\n      0x20\n      dup1\n      swap2\n      div\n      mul\n      0x20\n      add\n      mload(0x40)\n      swap1\n      dup2\n      add\n      0x40\n      mstore\n      dup1\n      swap3\n      swap2\n      swap1\n      dup2\n      dup2\n      mstore\n      0x20\n      add\n      dup3\n      dup1\n      sload\n      tag_36\n      swap1\n      tag_35\n      jump\t// in\n    tag_36:\n      dup1\n      iszero\n      tag_37\n      jumpi\n      dup1\n      0x1f\n      lt\n      tag_38\n      jumpi\n      0x0100\n      dup1\n      dup4\n      sload\n      div\n      mul\n      dup4\n      mstore\n      swap2\n      0x20\n      add\n      swap2\n      jump(tag_37)\n    tag_38:\n      dup3\n      add\n      swap2\n      swap1\n      0x00\n      mstore\n      keccak256(0x00, 0x20)\n      swap1\n    tag_39:\n      dup2\n      sload\n      dup2\n      mstore\n      swap1\n      0x01\n      add\n      swap1\n      0x20\n      add\n      dup1\n      dup4\n      gt\n      tag_39\n      jumpi\n      dup3\n      swap1\n      sub\n      0x1f\n      and\n      dup3\n      add\n      swap2\n    tag_37:\n      pop\n      pop\n      pop\n      pop\n      pop\n      dup2\n      mstore\n      0x20\n      add\n      0x01\n      dup3\n      add\n      0x00\n      swap1\n      sload\n      swap1\n      0x0100\n      exp\n      swap1\n      div\n      0xff\n      and\n      iszero\n      iszero\n      iszero\n      iszero\n      dup2\n      mstore\n      pop\n      pop\n      swap1\n      pop\n        /* \"contracts/Programs/Struct.sol\":776:780  todo */\n      dup1\n        /* \"contracts/Programs/Struct.sol\":776:785  todo.text */\n      0x00\n      add\n      mload\n        /* \"contracts/Programs/Struct.sol\":786:790  todo */\n      dup2\n        /* \"contracts/Programs/Struct.sol\":786:800  todo.completed */\n      0x20\n      add\n      mload\n        /* \"contracts/Programs/Struct.sol\":768:801  return (todo.text,todo.completed) */\n      swap3\n      pop\n      swap3\n      pop\n      pop\n        /* \"contracts/Programs/Struct.sol\":645:809  function get(uint _index) external view returns(string memory, bool) {... */\n      swap2\n      pop\n      swap2\n      jump\t// out\n        /* \"contracts/Programs/Struct.sol\":491:637  function updateText2(uint _index, string calldata _text) external {... */\n    tag_17:\n        /* \"contracts/Programs/Struct.sol\":568:585  Todo storage todo */\n      0x00\n        /* \"contracts/Programs/Struct.sol\":588:593  todos */\n      dup1\n        /* \"contracts/Programs/Struct.sol\":594:600  _index */\n      dup5\n        /* \"contracts/Programs/Struct.sol\":588:601  todos[_index] */\n      dup2\n      sload\n      dup2\n      lt\n      tag_41\n      jumpi\n      tag_42\n      tag_32\n      jump\t// in\n    tag_42:\n    tag_41:\n      swap1\n      0x00\n      mstore\n      keccak256(0x00, 0x20)\n      swap1\n      0x02\n      mul\n      add\n        /* \"contracts/Programs/Struct.sol\":568:601  Todo storage todo = todos[_index] */\n      swap1\n      pop\n        /* \"contracts/Programs/Struct.sol\":624:629  _text */\n      dup3\n      dup3\n        /* \"contracts/Programs/Struct.sol\":612:616  todo */\n      dup3\n        /* \"contracts/Programs/Struct.sol\":612:621  todo.text */\n      0x00\n      add\n        /* \"contracts/Programs/Struct.sol\":612:629  todo.text = _text */\n      swap2\n      dup3\n      tag_44\n      swap3\n      swap2\n      swap1\n      tag_45\n      jump\t// in\n    tag_44:\n      pop\n        /* \"contracts/Programs/Struct.sol\":557:637  {... */\n      pop\n        /* \"contracts/Programs/Struct.sol\":491:637  function updateText2(uint _index, string calldata _text) external {... */\n      pop\n      pop\n      pop\n      jump\t// out\n        /* \"contracts/Programs/Struct.sol\":180:367  function create(string calldata _text) external{... */\n    tag_21:\n      pop\n      pop\n      jump\t// out\n        /* \"contracts/Programs/Struct.sol\":152:171  Todo[] public todos */\n    tag_24:\n      0x00\n      dup2\n      dup2\n      sload\n      dup2\n      lt\n      tag_47\n      jumpi\n      0x00\n      dup1\n      revert\n    tag_47:\n      swap1\n      0x00\n      mstore\n      keccak256(0x00, 0x20)\n      swap1\n      0x02\n      mul\n      add\n      0x00\n      swap2\n      pop\n      swap1\n      pop\n      dup1\n      0x00\n      add\n      dup1\n      sload\n      tag_49\n      swap1\n      tag_35\n      jump\t// in\n    tag_49:\n      dup1\n      0x1f\n      add\n      0x20\n      dup1\n      swap2\n      div\n      mul\n      0x20\n      add\n      mload(0x40)\n      swap1\n      dup2\n      add\n      0x40\n      mstore\n      dup1\n      swap3\n      swap2\n      swap1\n      dup2\n      dup2\n      mstore\n      0x20\n      add\n      dup3\n      dup1\n      sload\n      tag_50\n      swap1\n      tag_35\n      jump\t// in\n    tag_50:\n      dup1\n      iszero\n      tag_51\n      jumpi\n      dup1\n      0x1f\n      lt\n      tag_52\n      jumpi\n      0x0100\n      dup1\n      dup4\n      sload\n      div\n      mul\n      dup4\n      mstore\n      swap2\n      0x20\n      add\n      swap2\n      jump(tag_51)\n    tag_52:\n      dup3\n      add\n      swap2\n      swap1\n      0x00\n      mstore\n      keccak256(0x00, 0x20)\n      swap1\n    tag_53:\n      dup2\n      sload\n      dup2\n      mstore\n      swap1\n      0x01\n      add\n      swap1\n      0x20\n      add\n      dup1\n      dup4\n      gt\n      tag_53\n      jumpi\n      dup3\n      swap1\n      sub\n      0x1f\n      and\n      dup3\n      add\n      swap2\n    tag_51:\n      pop\n      pop\n      pop\n      pop\n      pop\n      swap1\n      dup1\n      0x01\n      add\n      0x00\n      swap1\n      sload\n      swap1\n      0x0100\n      exp\n      swap1\n      div\n      0xff\n      and\n      swap1\n      pop\n      dup3\n      jump\t// out\n        /* \"contracts/Programs/Struct.sol\":375:485  function updateText(uint _index, string calldata _text) external {... */\n    tag_28:\n        /* \"contracts/Programs/Struct.sol\":472:477  _text */\n      dup2\n      dup2\n        /* \"contracts/Programs/Struct.sol\":451:456  todos */\n      0x00\n        /* \"contracts/Programs/Struct.sol\":457:463  _index */\n      dup6\n        /* \"contracts/Programs/Struct.sol\":451:464  todos[_index] */\n      dup2\n      sload\n      dup2\n      lt\n      tag_55\n      jumpi\n      tag_56\n      tag_32\n      jump\t// in\n    tag_56:\n    tag_55:\n      swap1\n      0x00\n      mstore\n      keccak256(0x00, 0x20)\n      swap1\n      0x02\n      mul\n      add\n        /* \"contracts/Programs/Struct.sol\":451:469  todos[_index].text */\n      0x00\n      add\n        /* \"contracts/Programs/Struct.sol\":451:477  todos[_index].text = _text */\n      swap2\n      dup3\n      tag_58\n      swap3\n      swap2\n      swap1\n      tag_45\n      jump\t// in\n    tag_58:\n      pop\n        /* \"contracts/Programs/Struct.sol\":375:485  function updateText(uint _index, string calldata _text) external {... */\n      pop\n      pop\n      pop\n      jump\t// out\n        /* \"#utility.yul\":88:205   */\n    tag_60:\n        /* \"#utility.yul\":197:198   */\n      0x00\n        /* \"#utility.yul\":194:195   */\n      dup1\n        /* \"#utility.yul\":187:199   */\n      revert\n        /* \"#utility.yul\":211:328   */\n    tag_61:\n        /* \"#utility.yul\":320:321   */\n      0x00\n        /* \"#utility.yul\":317:318   */\n      dup1\n        /* \"#utility.yul\":310:322   */\n      revert\n        /* \"#utility.yul\":334:411   */\n    tag_62:\n        /* \"#utility.yul\":371:378   */\n      0x00\n        /* \"#utility.yul\":400:405   */\n      dup2\n        /* \"#utility.yul\":389:405   */\n      swap1\n      pop\n        /* \"#utility.yul\":334:411   */\n      swap2\n      swap1\n      pop\n      jump\t// out\n        /* \"#utility.yul\":417:539   */\n    tag_63:\n        /* \"#utility.yul\":490:514   */\n      tag_100\n        /* \"#utility.yul\":508:513   */\n      dup2\n        /* \"#utility.yul\":490:514   */\n      tag_62\n      jump\t// in\n    tag_100:\n        /* \"#utility.yul\":483:488   */\n      dup2\n        /* \"#utility.yul\":480:515   */\n      eq\n        /* \"#utility.yul\":470:533   */\n      tag_101\n      jumpi\n        /* \"#utility.yul\":529:530   */\n      0x00\n        /* \"#utility.yul\":526:527   */\n      dup1\n        /* \"#utility.yul\":519:531   */\n      revert\n        /* \"#utility.yul\":470:533   */\n    tag_101:\n        /* \"#utility.yul\":417:539   */\n      pop\n      jump\t// out\n        /* \"#utility.yul\":545:684   */\n    tag_64:\n        /* \"#utility.yul\":591:596   */\n      0x00\n        /* \"#utility.yul\":629:635   */\n      dup2\n        /* \"#utility.yul\":616:636   */\n      calldataload\n        /* \"#utility.yul\":607:636   */\n      swap1\n      pop\n        /* \"#utility.yul\":645:678   */\n      tag_103\n        /* \"#utility.yul\":672:677   */\n      dup2\n        /* \"#utility.yul\":645:678   */\n      tag_63\n      jump\t// in\n    tag_103:\n        /* \"#utility.yul\":545:684   */\n      swap3\n      swap2\n      pop\n      pop\n      jump\t// out\n        /* \"#utility.yul\":690:1019   */\n    tag_10:\n        /* \"#utility.yul\":749:755   */\n      0x00\n        /* \"#utility.yul\":798:800   */\n      0x20\n        /* \"#utility.yul\":786:795   */\n      dup3\n        /* \"#utility.yul\":777:784   */\n      dup5\n        /* \"#utility.yul\":773:796   */\n      sub\n        /* \"#utility.yul\":769:801   */\n      slt\n        /* \"#utility.yul\":766:885   */\n      iszero\n      tag_105\n      jumpi\n        /* \"#utility.yul\":804:883   */\n      tag_106\n      tag_60\n      jump\t// in\n    tag_106:\n        /* \"#utility.yul\":766:885   */\n    tag_105:\n        /* \"#utility.yul\":924:925   */\n      0x00\n        /* \"#utility.yul\":949:1002   */\n      tag_107\n        /* \"#utility.yul\":994:1001   */\n      dup5\n        /* \"#utility.yul\":985:991   */\n      dup3\n        /* \"#utility.yul\":974:983   */\n      dup6\n        /* \"#utility.yul\":970:992   */\n      add\n        /* \"#utility.yul\":949:1002   */\n      tag_64\n      jump\t// in\n    tag_107:\n        /* \"#utility.yul\":939:1002   */\n      swap2\n      pop\n        /* \"#utility.yul\":895:1012   */\n      pop\n        /* \"#utility.yul\":690:1019   */\n      swap3\n      swap2\n      pop\n      pop\n      jump\t// out\n        /* \"#utility.yul\":1025:1124   */\n    tag_65:\n        /* \"#utility.yul\":1077:1083   */\n      0x00\n        /* \"#utility.yul\":1111:1116   */\n      dup2\n        /* \"#utility.yul\":1105:1117   */\n      mload\n        /* \"#utility.yul\":1095:1117   */\n      swap1\n      pop\n        /* \"#utility.yul\":1025:1124   */\n      swap2\n      swap1\n      pop\n      jump\t// out\n        /* \"#utility.yul\":1130:1299   */\n    tag_66:\n        /* \"#utility.yul\":1214:1225   */\n      0x00\n        /* \"#utility.yul\":1248:1254   */\n      dup3\n        /* \"#utility.yul\":1243:1246   */\n      dup3\n        /* \"#utility.yul\":1236:1255   */\n      mstore\n        /* \"#utility.yul\":1288:1292   */\n      0x20\n        /* \"#utility.yul\":1283:1286   */\n      dup3\n        /* \"#utility.yul\":1279:1293   */\n      add\n        /* \"#utility.yul\":1264:1293   */\n      swap1\n      pop\n        /* \"#utility.yul\":1130:1299   */\n      swap3\n      swap2\n      pop\n      pop\n      jump\t// out\n        /* \"#utility.yul\":1305:1551   */\n    tag_67:\n        /* \"#utility.yul\":1386:1387   */\n      0x00\n        /* \"#utility.yul\":1396:1509   */\n    tag_111:\n        /* \"#utility.yul\":1410:1416   */\n      dup4\n        /* \"#utility.yul\":1407:1408   */\n      dup2\n        /* \"#utility.yul\":1404:1417   */\n      lt\n        /* \"#utility.yul\":1396:1509   */\n      iszero\n      tag_113\n      jumpi\n        /* \"#utility.yul\":1495:1496   */\n      dup1\n        /* \"#utility.yul\":1490:1493   */\n      dup3\n        /* \"#utility.yul\":1486:1497   */\n      add\n        /* \"#utility.yul\":1480:1498   */\n      mload\n        /* \"#utility.yul\":1476:1477   */\n      dup2\n        /* \"#utility.yul\":1471:1474   */\n      dup5\n        /* \"#utility.yul\":1467:1478   */\n      add\n        /* \"#utility.yul\":1460:1499   */\n      mstore\n        /* \"#utility.yul\":1432:1434   */\n      0x20\n        /* \"#utility.yul\":1429:1430   */\n      dup2\n        /* \"#utility.yul\":1425:1435   */\n      add\n        /* \"#utility.yul\":1420:1435   */\n      swap1\n      pop\n        /* \"#utility.yul\":1396:1509   */\n      jump(tag_111)\n    tag_113:\n        /* \"#utility.yul\":1543:1544   */\n      0x00\n        /* \"#utility.yul\":1534:1540   */\n      dup5\n        /* \"#utility.yul\":1529:1532   */\n      dup5\n        /* \"#utility.yul\":1525:1541   */\n      add\n        /* \"#utility.yul\":1518:1545   */\n      mstore\n        /* \"#utility.yul\":1367:1551   */\n      pop\n        /* \"#utility.yul\":1305:1551   */\n      pop\n      pop\n      pop\n      jump\t// out\n        /* \"#utility.yul\":1557:1659   */\n    tag_68:\n        /* \"#utility.yul\":1598:1604   */\n      0x00\n        /* \"#utility.yul\":1649:1651   */\n      0x1f\n        /* \"#utility.yul\":1645:1652   */\n      not\n        /* \"#utility.yul\":1640:1642   */\n      0x1f\n        /* \"#utility.yul\":1633:1638   */\n      dup4\n        /* \"#utility.yul\":1629:1643   */\n      add\n        /* \"#utility.yul\":1625:1653   */\n      and\n        /* \"#utility.yul\":1615:1653   */\n      swap1\n      pop\n        /* \"#utility.yul\":1557:1659   */\n      swap2\n      swap1\n      pop\n      jump\t// out\n        /* \"#utility.yul\":1665:2042   */\n    tag_69:\n        /* \"#utility.yul\":1753:1756   */\n      0x00\n        /* \"#utility.yul\":1781:1820   */\n      tag_116\n        /* \"#utility.yul\":1814:1819   */\n      dup3\n        /* \"#utility.yul\":1781:1820   */\n      tag_65\n      jump\t// in\n    tag_116:\n        /* \"#utility.yul\":1836:1907   */\n      tag_117\n        /* \"#utility.yul\":1900:1906   */\n      dup2\n        /* \"#utility.yul\":1895:1898   */\n      dup6\n        /* \"#utility.yul\":1836:1907   */\n      tag_66\n      jump\t// in\n    tag_117:\n        /* \"#utility.yul\":1829:1907   */\n      swap4\n      pop\n        /* \"#utility.yul\":1916:1981   */\n      tag_118\n        /* \"#utility.yul\":1974:1980   */\n      dup2\n        /* \"#utility.yul\":1969:1972   */\n      dup6\n        /* \"#utility.yul\":1962:1966   */\n      0x20\n        /* \"#utility.yul\":1955:1960   */\n      dup7\n        /* \"#utility.yul\":1951:1967   */\n      add\n        /* \"#utility.yul\":1916:1981   */\n      tag_67\n      jump\t// in\n    tag_118:\n        /* \"#utility.yul\":2006:2035   */\n      tag_119\n        /* \"#utility.yul\":2028:2034   */\n      dup2\n        /* \"#utility.yul\":2006:2035   */\n      tag_68\n      jump\t// in\n    tag_119:\n        /* \"#utility.yul\":2001:2004   */\n      dup5\n        /* \"#utility.yul\":1997:2036   */\n      add\n        /* \"#utility.yul\":1990:2036   */\n      swap2\n      pop\n        /* \"#utility.yul\":1757:2042   */\n      pop\n        /* \"#utility.yul\":1665:2042   */\n      swap3\n      swap2\n      pop\n      pop\n      jump\t// out\n        /* \"#utility.yul\":2048:2138   */\n    tag_70:\n        /* \"#utility.yul\":2082:2089   */\n      0x00\n        /* \"#utility.yul\":2125:2130   */\n      dup2\n        /* \"#utility.yul\":2118:2131   */\n      iszero\n        /* \"#utility.yul\":2111:2132   */\n      iszero\n        /* \"#utility.yul\":2100:2132   */\n      swap1\n      pop\n        /* \"#utility.yul\":2048:2138   */\n      swap2\n      swap1\n      pop\n      jump\t// out\n        /* \"#utility.yul\":2144:2253   */\n    tag_71:\n        /* \"#utility.yul\":2225:2246   */\n      tag_122\n        /* \"#utility.yul\":2240:2245   */\n      dup2\n        /* \"#utility.yul\":2225:2246   */\n      tag_70\n      jump\t// in\n    tag_122:\n        /* \"#utility.yul\":2220:2223   */\n      dup3\n        /* \"#utility.yul\":2213:2247   */\n      mstore\n        /* \"#utility.yul\":2144:2253   */\n      pop\n      pop\n      jump\t// out\n        /* \"#utility.yul\":2259:2670   */\n    tag_13:\n        /* \"#utility.yul\":2394:2398   */\n      0x00\n        /* \"#utility.yul\":2432:2434   */\n      0x40\n        /* \"#utility.yul\":2421:2430   */\n      dup3\n        /* \"#utility.yul\":2417:2435   */\n      add\n        /* \"#utility.yul\":2409:2435   */\n      swap1\n      pop\n        /* \"#utility.yul\":2481:2490   */\n      dup2\n        /* \"#utility.yul\":2475:2479   */\n      dup2\n        /* \"#utility.yul\":2471:2491   */\n      sub\n        /* \"#utility.yul\":2467:2468   */\n      0x00\n        /* \"#utility.yul\":2456:2465   */\n      dup4\n        /* \"#utility.yul\":2452:2469   */\n      add\n        /* \"#utility.yul\":2445:2492   */\n      mstore\n        /* \"#utility.yul\":2509:2587   */\n      tag_124\n        /* \"#utility.yul\":2582:2586   */\n      dup2\n        /* \"#utility.yul\":2573:2579   */\n      dup6\n        /* \"#utility.yul\":2509:2587   */\n      tag_69\n      jump\t// in\n    tag_124:\n        /* \"#utility.yul\":2501:2587   */\n      swap1\n      pop\n        /* \"#utility.yul\":2597:2663   */\n      tag_125\n        /* \"#utility.yul\":2659:2661   */\n      0x20\n        /* \"#utility.yul\":2648:2657   */\n      dup4\n        /* \"#utility.yul\":2644:2662   */\n      add\n        /* \"#utility.yul\":2635:2641   */\n      dup5\n        /* \"#utility.yul\":2597:2663   */\n      tag_71\n      jump\t// in\n    tag_125:\n        /* \"#utility.yul\":2259:2670   */\n      swap4\n      swap3\n      pop\n      pop\n      pop\n      jump\t// out\n        /* \"#utility.yul\":2676:2793   */\n    tag_72:\n        /* \"#utility.yul\":2785:2786   */\n      0x00\n        /* \"#utility.yul\":2782:2783   */\n      dup1\n        /* \"#utility.yul\":2775:2787   */\n      revert\n        /* \"#utility.yul\":2799:2916   */\n    tag_73:\n        /* \"#utility.yul\":2908:2909   */\n      0x00\n        /* \"#utility.yul\":2905:2906   */\n      dup1\n        /* \"#utility.yul\":2898:2910   */\n      revert\n        /* \"#utility.yul\":2922:3039   */\n    tag_74:\n        /* \"#utility.yul\":3031:3032   */\n      0x00\n        /* \"#utility.yul\":3028:3029   */\n      dup1\n        /* \"#utility.yul\":3021:3033   */\n      revert\n        /* \"#utility.yul\":3059:3612   */\n    tag_75:\n        /* \"#utility.yul\":3117:3125   */\n      0x00\n        /* \"#utility.yul\":3127:3133   */\n      dup1\n        /* \"#utility.yul\":3177:3180   */\n      dup4\n        /* \"#utility.yul\":3170:3174   */\n      0x1f\n        /* \"#utility.yul\":3162:3168   */\n      dup5\n        /* \"#utility.yul\":3158:3175   */\n      add\n        /* \"#utility.yul\":3154:3181   */\n      slt\n        /* \"#utility.yul\":3144:3266   */\n      tag_130\n      jumpi\n        /* \"#utility.yul\":3185:3264   */\n      tag_131\n      tag_72\n      jump\t// in\n    tag_131:\n        /* \"#utility.yul\":3144:3266   */\n    tag_130:\n        /* \"#utility.yul\":3298:3304   */\n      dup3\n        /* \"#utility.yul\":3285:3305   */\n      calldataload\n        /* \"#utility.yul\":3275:3305   */\n      swap1\n      pop\n        /* \"#utility.yul\":3328:3346   */\n      0xffffffffffffffff\n        /* \"#utility.yul\":3320:3326   */\n      dup2\n        /* \"#utility.yul\":3317:3347   */\n      gt\n        /* \"#utility.yul\":3314:3431   */\n      iszero\n      tag_132\n      jumpi\n        /* \"#utility.yul\":3350:3429   */\n      tag_133\n      tag_73\n      jump\t// in\n    tag_133:\n        /* \"#utility.yul\":3314:3431   */\n    tag_132:\n        /* \"#utility.yul\":3464:3468   */\n      0x20\n        /* \"#utility.yul\":3456:3462   */\n      dup4\n        /* \"#utility.yul\":3452:3469   */\n      add\n        /* \"#utility.yul\":3440:3469   */\n      swap2\n      pop\n        /* \"#utility.yul\":3518:3521   */\n      dup4\n        /* \"#utility.yul\":3510:3514   */\n      0x01\n        /* \"#utility.yul\":3502:3508   */\n      dup3\n        /* \"#utility.yul\":3498:3515   */\n      mul\n        /* \"#utility.yul\":3488:3496   */\n      dup4\n        /* \"#utility.yul\":3484:3516   */\n      add\n        /* \"#utility.yul\":3481:3522   */\n      gt\n        /* \"#utility.yul\":3478:3606   */\n      iszero\n      tag_134\n      jumpi\n        /* \"#utility.yul\":3525:3604   */\n      tag_135\n      tag_74\n      jump\t// in\n    tag_135:\n        /* \"#utility.yul\":3478:3606   */\n    tag_134:\n        /* \"#utility.yul\":3059:3612   */\n      swap3\n      pop\n      swap3\n      swap1\n      pop\n      jump\t// out\n        /* \"#utility.yul\":3618:4292   */\n    tag_16:\n        /* \"#utility.yul\":3698:3704   */\n      0x00\n        /* \"#utility.yul\":3706:3712   */\n      dup1\n        /* \"#utility.yul\":3714:3720   */\n      0x00\n        /* \"#utility.yul\":3763:3765   */\n      0x40\n        /* \"#utility.yul\":3751:3760   */\n      dup5\n        /* \"#utility.yul\":3742:3749   */\n      dup7\n        /* \"#utility.yul\":3738:3761   */\n      sub\n        /* \"#utility.yul\":3734:3766   */\n      slt\n        /* \"#utility.yul\":3731:3850   */\n      iszero\n      tag_137\n      jumpi\n        /* \"#utility.yul\":3769:3848   */\n      tag_138\n      tag_60\n      jump\t// in\n    tag_138:\n        /* \"#utility.yul\":3731:3850   */\n    tag_137:\n        /* \"#utility.yul\":3889:3890   */\n      0x00\n        /* \"#utility.yul\":3914:3967   */\n      tag_139\n        /* \"#utility.yul\":3959:3966   */\n      dup7\n        /* \"#utility.yul\":3950:3956   */\n      dup3\n        /* \"#utility.yul\":3939:3948   */\n      dup8\n        /* \"#utility.yul\":3935:3957   */\n      add\n        /* \"#utility.yul\":3914:3967   */\n      tag_64\n      jump\t// in\n    tag_139:\n        /* \"#utility.yul\":3904:3967   */\n      swap4\n      pop\n        /* \"#utility.yul\":3860:3977   */\n      pop\n        /* \"#utility.yul\":4044:4046   */\n      0x20\n        /* \"#utility.yul\":4033:4042   */\n      dup5\n        /* \"#utility.yul\":4029:4047   */\n      add\n        /* \"#utility.yul\":4016:4048   */\n      calldataload\n        /* \"#utility.yul\":4075:4093   */\n      0xffffffffffffffff\n        /* \"#utility.yul\":4067:4073   */\n      dup2\n        /* \"#utility.yul\":4064:4094   */\n      gt\n        /* \"#utility.yul\":4061:4178   */\n      iszero\n      tag_140\n      jumpi\n        /* \"#utility.yul\":4097:4176   */\n      tag_141\n      tag_61\n      jump\t// in\n    tag_141:\n        /* \"#utility.yul\":4061:4178   */\n    tag_140:\n        /* \"#utility.yul\":4210:4275   */\n      tag_142\n        /* \"#utility.yul\":4267:4274   */\n      dup7\n        /* \"#utility.yul\":4258:4264   */\n      dup3\n        /* \"#utility.yul\":4247:4256   */\n      dup8\n        /* \"#utility.yul\":4243:4265   */\n      add\n        /* \"#utility.yul\":4210:4275   */\n      tag_75\n      jump\t// in\n    tag_142:\n        /* \"#utility.yul\":4192:4275   */\n      swap3\n      pop\n      swap3\n      pop\n        /* \"#utility.yul\":3987:4285   */\n      pop\n        /* \"#utility.yul\":3618:4292   */\n      swap3\n      pop\n      swap3\n      pop\n      swap3\n      jump\t// out\n        /* \"#utility.yul\":4298:4827   */\n    tag_20:\n        /* \"#utility.yul\":4369:4375   */\n      0x00\n        /* \"#utility.yul\":4377:4383   */\n      dup1\n        /* \"#utility.yul\":4426:4428   */\n      0x20\n        /* \"#utility.yul\":4414:4423   */\n      dup4\n        /* \"#utility.yul\":4405:4412   */\n      dup6\n        /* \"#utility.yul\":4401:4424   */\n      sub\n        /* \"#utility.yul\":4397:4429   */\n      slt\n        /* \"#utility.yul\":4394:4513   */\n      iszero\n      tag_144\n      jumpi\n        /* \"#utility.yul\":4432:4511   */\n      tag_145\n      tag_60\n      jump\t// in\n    tag_145:\n        /* \"#utility.yul\":4394:4513   */\n    tag_144:\n        /* \"#utility.yul\":4580:4581   */\n      0x00\n        /* \"#utility.yul\":4569:4578   */\n      dup4\n        /* \"#utility.yul\":4565:4582   */\n      add\n        /* \"#utility.yul\":4552:4583   */\n      calldataload\n        /* \"#utility.yul\":4610:4628   */\n      0xffffffffffffffff\n        /* \"#utility.yul\":4602:4608   */\n      dup2\n        /* \"#utility.yul\":4599:4629   */\n      gt\n        /* \"#utility.yul\":4596:4713   */\n      iszero\n      tag_146\n      jumpi\n        /* \"#utility.yul\":4632:4711   */\n      tag_147\n      tag_61\n      jump\t// in\n    tag_147:\n        /* \"#utility.yul\":4596:4713   */\n    tag_146:\n        /* \"#utility.yul\":4745:4810   */\n      tag_148\n        /* \"#utility.yul\":4802:4809   */\n      dup6\n        /* \"#utility.yul\":4793:4799   */\n      dup3\n        /* \"#utility.yul\":4782:4791   */\n      dup7\n        /* \"#utility.yul\":4778:4800   */\n      add\n        /* \"#utility.yul\":4745:4810   */\n      tag_75\n      jump\t// in\n    tag_148:\n        /* \"#utility.yul\":4727:4810   */\n      swap3\n      pop\n      swap3\n      pop\n        /* \"#utility.yul\":4523:4820   */\n      pop\n        /* \"#utility.yul\":4298:4827   */\n      swap3\n      pop\n      swap3\n      swap1\n      pop\n      jump\t// out\n        /* \"#utility.yul\":4833:5013   */\n    tag_32:\n        /* \"#utility.yul\":4881:4958   */\n      0x4e487b7100000000000000000000000000000000000000000000000000000000\n        /* \"#utility.yul\":4878:4879   */\n      0x00\n        /* \"#utility.yul\":4871:4959   */\n      mstore\n        /* \"#utility.yul\":4978:4982   */\n      0x32\n        /* \"#utility.yul\":4975:4976   */\n      0x04\n        /* \"#utility.yul\":4968:4983   */\n      mstore\n        /* \"#utility.yul\":5002:5006   */\n      0x24\n        /* \"#utility.yul\":4999:5000   */\n      0x00\n        /* \"#utility.yul\":4992:5007   */\n      revert\n        /* \"#utility.yul\":5019:5199   */\n    tag_76:\n        /* \"#utility.yul\":5067:5144   */\n      0x4e487b7100000000000000000000000000000000000000000000000000000000\n        /* \"#utility.yul\":5064:5065   */\n      0x00\n        /* \"#utility.yul\":5057:5145   */\n      mstore\n        /* \"#utility.yul\":5164:5168   */\n      0x22\n        /* \"#utility.yul\":5161:5162   */\n      0x04\n        /* \"#utility.yul\":5154:5169   */\n      mstore\n        /* \"#utility.yul\":5188:5192   */\n      0x24\n        /* \"#utility.yul\":5185:5186   */\n      0x00\n        /* \"#utility.yul\":5178:5193   */\n      revert\n        /* \"#utility.yul\":5205:5525   */\n    tag_35:\n        /* \"#utility.yul\":5249:5255   */\n      0x00\n        /* \"#utility.yul\":5286:5287   */\n      0x02\n        /* \"#utility.yul\":5280:5284   */\n      dup3\n        /* \"#utility.yul\":5276:5288   */\n      div\n        /* \"#utility.yul\":5266:5288   */\n      swap1\n      pop\n        /* \"#utility.yul\":5333:5334   */\n      0x01\n        /* \"#utility.yul\":5327:5331   */\n      dup3\n        /* \"#utility.yul\":5323:5335   */\n      and\n        /* \"#utility.yul\":5354:5372   */\n      dup1\n        /* \"#utility.yul\":5344:5425   */\n      tag_152\n      jumpi\n        /* \"#utility.yul\":5410:5414   */\n      0x7f\n        /* \"#utility.yul\":5402:5408   */\n      dup3\n        /* \"#utility.yul\":5398:5415   */\n      and\n        /* \"#utility.yul\":5388:5415   */\n      swap2\n      pop\n        /* \"#utility.yul\":5344:5425   */\n    tag_152:\n        /* \"#utility.yul\":5472:5474   */\n      0x20\n        /* \"#utility.yul\":5464:5470   */\n      dup3\n        /* \"#utility.yul\":5461:5475   */\n      lt\n        /* \"#utility.yul\":5441:5459   */\n      dup2\n        /* \"#utility.yul\":5438:5476   */\n      sub\n        /* \"#utility.yul\":5435:5519   */\n      tag_153\n      jumpi\n        /* \"#utility.yul\":5491:5509   */\n      tag_154\n      tag_76\n      jump\t// in\n    tag_154:\n        /* \"#utility.yul\":5435:5519   */\n    tag_153:\n        /* \"#utility.yul\":5256:5525   */\n      pop\n        /* \"#utility.yul\":5205:5525   */\n      swap2\n      swap1\n      pop\n      jump\t// out\n        /* \"#utility.yul\":5531:5628   */\n    tag_77:\n        /* \"#utility.yul\":5590:5596   */\n      0x00\n        /* \"#utility.yul\":5618:5621   */\n      dup3\n        /* \"#utility.yul\":5608:5621   */\n      swap1\n      pop\n        /* \"#utility.yul\":5531:5628   */\n      swap3\n      swap2\n      pop\n      pop\n      jump\t// out\n        /* \"#utility.yul\":5634:5814   */\n    tag_78:\n        /* \"#utility.yul\":5682:5759   */\n      0x4e487b7100000000000000000000000000000000000000000000000000000000\n        /* \"#utility.yul\":5679:5680   */\n      0x00\n        /* \"#utility.yul\":5672:5760   */\n      mstore\n        /* \"#utility.yul\":5779:5783   */\n      0x41\n        /* \"#utility.yul\":5776:5777   */\n      0x04\n        /* \"#utility.yul\":5769:5784   */\n      mstore\n        /* \"#utility.yul\":5803:5807   */\n      0x24\n        /* \"#utility.yul\":5800:5801   */\n      0x00\n        /* \"#utility.yul\":5793:5808   */\n      revert\n        /* \"#utility.yul\":5820:5961   */\n    tag_79:\n        /* \"#utility.yul\":5869:5873   */\n      0x00\n        /* \"#utility.yul\":5892:5895   */\n      dup2\n        /* \"#utility.yul\":5884:5895   */\n      swap1\n      pop\n        /* \"#utility.yul\":5915:5918   */\n      dup2\n        /* \"#utility.yul\":5912:5913   */\n      0x00\n        /* \"#utility.yul\":5905:5919   */\n      mstore\n        /* \"#utility.yul\":5949:5953   */\n      0x20\n        /* \"#utility.yul\":5946:5947   */\n      0x00\n        /* \"#utility.yul\":5936:5954   */\n      keccak256\n        /* \"#utility.yul\":5928:5954   */\n      swap1\n      pop\n        /* \"#utility.yul\":5820:5961   */\n      swap2\n      swap1\n      pop\n      jump\t// out\n        /* \"#utility.yul\":5967:6060   */\n    tag_80:\n        /* \"#utility.yul\":6004:6010   */\n      0x00\n        /* \"#utility.yul\":6051:6053   */\n      0x20\n        /* \"#utility.yul\":6046:6048   */\n      0x1f\n        /* \"#utility.yul\":6039:6044   */\n      dup4\n        /* \"#utility.yul\":6035:6049   */\n      add\n        /* \"#utility.yul\":6031:6054   */\n      div\n        /* \"#utility.yul\":6021:6054   */\n      swap1\n      pop\n        /* \"#utility.yul\":5967:6060   */\n      swap2\n      swap1\n      pop\n      jump\t// out\n        /* \"#utility.yul\":6066:6173   */\n    tag_81:\n        /* \"#utility.yul\":6110:6118   */\n      0x00\n        /* \"#utility.yul\":6160:6165   */\n      dup3\n        /* \"#utility.yul\":6154:6158   */\n      dup3\n        /* \"#utility.yul\":6150:6166   */\n      shl\n        /* \"#utility.yul\":6129:6166   */\n      swap1\n      pop\n        /* \"#utility.yul\":6066:6173   */\n      swap3\n      swap2\n      pop\n      pop\n      jump\t// out\n        /* \"#utility.yul\":6179:6572   */\n    tag_82:\n        /* \"#utility.yul\":6248:6254   */\n      0x00\n        /* \"#utility.yul\":6298:6299   */\n      0x08\n        /* \"#utility.yul\":6286:6296   */\n      dup4\n        /* \"#utility.yul\":6282:6300   */\n      mul\n        /* \"#utility.yul\":6321:6418   */\n      tag_161\n        /* \"#utility.yul\":6351:6417   */\n      0xffffffffffffffffffffffffffffffffffffffffffffffffffffffffffffffff\n        /* \"#utility.yul\":6340:6349   */\n      dup3\n        /* \"#utility.yul\":6321:6418   */\n      tag_81\n      jump\t// in\n    tag_161:\n        /* \"#utility.yul\":6439:6478   */\n      tag_162\n        /* \"#utility.yul\":6469:6477   */\n      dup7\n        /* \"#utility.yul\":6458:6467   */\n      dup4\n        /* \"#utility.yul\":6439:6478   */\n      tag_81\n      jump\t// in\n    tag_162:\n        /* \"#utility.yul\":6427:6478   */\n      swap6\n      pop\n        /* \"#utility.yul\":6511:6515   */\n      dup1\n        /* \"#utility.yul\":6507:6516   */\n      not\n        /* \"#utility.yul\":6500:6505   */\n      dup5\n        /* \"#utility.yul\":6496:6517   */\n      and\n        /* \"#utility.yul\":6487:6517   */\n      swap4\n      pop\n        /* \"#utility.yul\":6560:6564   */\n      dup1\n        /* \"#utility.yul\":6550:6558   */\n      dup7\n        /* \"#utility.yul\":6546:6565   */\n      and\n        /* \"#utility.yul\":6539:6544   */\n      dup5\n        /* \"#utility.yul\":6536:6566   */\n      or\n        /* \"#utility.yul\":6526:6566   */\n      swap3\n      pop\n        /* \"#utility.yul\":6255:6572   */\n      pop\n      pop\n        /* \"#utility.yul\":6179:6572   */\n      swap4\n      swap3\n      pop\n      pop\n      pop\n      jump\t// out\n        /* \"#utility.yul\":6578:6638   */\n    tag_83:\n        /* \"#utility.yul\":6606:6609   */\n      0x00\n        /* \"#utility.yul\":6627:6632   */\n      dup2\n        /* \"#utility.yul\":6620:6632   */\n      swap1\n      pop\n        /* \"#utility.yul\":6578:6638   */\n      swap2\n      swap1\n      pop\n      jump\t// out\n        /* \"#utility.yul\":6644:6786   */\n    tag_84:\n        /* \"#utility.yul\":6694:6703   */\n      0x00\n        /* \"#utility.yul\":6727:6780   */\n      tag_165\n        /* \"#utility.yul\":6745:6779   */\n      tag_166\n        /* \"#utility.yul\":6754:6778   */\n      tag_167\n        /* \"#utility.yul\":6772:6777   */\n      dup5\n        /* \"#utility.yul\":6754:6778   */\n      tag_62\n      jump\t// in\n    tag_167:\n        /* \"#utility.yul\":6745:6779   */\n      tag_83\n      jump\t// in\n    tag_166:\n        /* \"#utility.yul\":6727:6780   */\n      tag_62\n      jump\t// in\n    tag_165:\n        /* \"#utility.yul\":6714:6780   */\n      swap1\n      pop\n        /* \"#utility.yul\":6644:6786   */\n      swap2\n      swap1\n      pop\n      jump\t// out\n        /* \"#utility.yul\":6792:6867   */\n    tag_85:\n        /* \"#utility.yul\":6835:6838   */\n      0x00\n        /* \"#utility.yul\":6856:6861   */\n      dup2\n        /* \"#utility.yul\":6849:6861   */\n      swap1\n      pop\n        /* \"#utility.yul\":6792:6867   */\n      swap2\n      swap1\n      pop\n      jump\t// out\n        /* \"#utility.yul\":6873:7142   */\n    tag_86:\n        /* \"#utility.yul\":6983:7022   */\n      tag_170\n        /* \"#utility.yul\":7014:7021   */\n      dup4\n        /* \"#utility.yul\":6983:7022   */\n      tag_84\n      jump\t// in\n    tag_170:\n        /* \"#utility.yul\":7044:7135   */\n      tag_171\n        /* \"#utility.yul\":7093:7134   */\n      tag_172\n        /* \"#utility.yul\":7117:7133   */\n      dup3\n        /* \"#utility.yul\":7093:7134   */\n      tag_85\n      jump\t// in\n    tag_172:\n        /* \"#utility.yul\":7085:7091   */\n      dup5\n        /* \"#utility.yul\":7078:7082   */\n      dup5\n        /* \"#utility.yul\":7072:7083   */\n      sload\n        /* \"#utility.yul\":7044:7135   */\n      tag_82\n      jump\t// in\n    tag_171:\n        /* \"#utility.yul\":7038:7042   */\n      dup3\n        /* \"#utility.yul\":7031:7136   */\n      sstore\n        /* \"#utility.yul\":6949:7142   */\n      pop\n        /* \"#utility.yul\":6873:7142   */\n      pop\n      pop\n      pop\n      jump\t// out\n        /* \"#utility.yul\":7148:7221   */\n    tag_87:\n        /* \"#utility.yul\":7193:7196   */\n      0x00\n        /* \"#utility.yul\":7148:7221   */\n      swap1\n      jump\t// out\n        /* \"#utility.yul\":7227:7416   */\n    tag_88:\n        /* \"#utility.yul\":7304:7336   */\n      tag_175\n      tag_87\n      jump\t// in\n    tag_175:\n        /* \"#utility.yul\":7345:7410   */\n      tag_176\n        /* \"#utility.yul\":7403:7409   */\n      dup2\n        /* \"#utility.yul\":7395:7401   */\n      dup5\n        /* \"#utility.yul\":7389:7393   */\n      dup5\n        /* \"#utility.yul\":7345:7410   */\n      tag_86\n      jump\t// in\n    tag_176:\n        /* \"#utility.yul\":7280:7416   */\n      pop\n        /* \"#utility.yul\":7227:7416   */\n      pop\n      pop\n      jump\t// out\n        /* \"#utility.yul\":7422:7608   */\n    tag_89:\n        /* \"#utility.yul\":7482:7602   */\n    tag_178:\n        /* \"#utility.yul\":7499:7502   */\n      dup2\n        /* \"#utility.yul\":7492:7497   */\n      dup2\n        /* \"#utility.yul\":7489:7503   */\n      lt\n        /* \"#utility.yul\":7482:7602   */\n      iszero\n      tag_180\n      jumpi\n        /* \"#utility.yul\":7553:7592   */\n      tag_181\n        /* \"#utility.yul\":7590:7591   */\n      0x00\n        /* \"#utility.yul\":7583:7588   */\n      dup3\n        /* \"#utility.yul\":7553:7592   */\n      tag_88\n      jump\t// in\n    tag_181:\n        /* \"#utility.yul\":7526:7527   */\n      0x01\n        /* \"#utility.yul\":7519:7524   */\n      dup2\n        /* \"#utility.yul\":7515:7528   */\n      add\n        /* \"#utility.yul\":7506:7528   */\n      swap1\n      pop\n        /* \"#utility.yul\":7482:7602   */\n      jump(tag_178)\n    tag_180:\n        /* \"#utility.yul\":7422:7608   */\n      pop\n      pop\n      jump\t// out\n        /* \"#utility.yul\":7614:8157   */\n    tag_90:\n        /* \"#utility.yul\":7715:7717   */\n      0x1f\n        /* \"#utility.yul\":7710:7713   */\n      dup3\n        /* \"#utility.yul\":7707:7718   */\n      gt\n        /* \"#utility.yul\":7704:8150   */\n      iszero\n      tag_183\n      jumpi\n        /* \"#utility.yul\":7749:7787   */\n      tag_184\n        /* \"#utility.yul\":7781:7786   */\n      dup2\n        /* \"#utility.yul\":7749:7787   */\n      tag_79\n      jump\t// in\n    tag_184:\n        /* \"#utility.yul\":7833:7862   */\n      tag_185\n        /* \"#utility.yul\":7851:7861   */\n      dup5\n        /* \"#utility.yul\":7833:7862   */\n      tag_80\n      jump\t// in\n    tag_185:\n        /* \"#utility.yul\":7823:7831   */\n      dup2\n        /* \"#utility.yul\":7819:7863   */\n      add\n        /* \"#utility.yul\":8016:8018   */\n      0x20\n        /* \"#utility.yul\":8004:8014   */\n      dup6\n        /* \"#utility.yul\":8001:8019   */\n      lt\n        /* \"#utility.yul\":7998:8047   */\n      iszero\n      tag_186\n      jumpi\n        /* \"#utility.yul\":8037:8045   */\n      dup2\n        /* \"#utility.yul\":8022:8045   */\n      swap1\n      pop\n        /* \"#utility.yul\":7998:8047   */\n    tag_186:\n        /* \"#utility.yul\":8060:8140   */\n      tag_187\n        /* \"#utility.yul\":8116:8138   */\n      tag_188\n        /* \"#utility.yul\":8134:8137   */\n      dup6\n        /* \"#utility.yul\":8116:8138   */\n      tag_80\n      jump\t// in\n    tag_188:\n        /* \"#utility.yul\":8106:8114   */\n      dup4\n        /* \"#utility.yul\":8102:8139   */\n      add\n        /* \"#utility.yul\":8089:8100   */\n      dup3\n        /* \"#utility.yul\":8060:8140   */\n      tag_89\n      jump\t// in\n    tag_187:\n        /* \"#utility.yul\":7719:8150   */\n      pop\n      pop\n        /* \"#utility.yul\":7704:8150   */\n    tag_183:\n        /* \"#utility.yul\":7614:8157   */\n      pop\n      pop\n      pop\n      jump\t// out\n        /* \"#utility.yul\":8163:8280   */\n    tag_91:\n        /* \"#utility.yul\":8217:8225   */\n      0x00\n        /* \"#utility.yul\":8267:8272   */\n      dup3\n        /* \"#utility.yul\":8261:8265   */\n      dup3\n        /* \"#utility.yul\":8257:8273   */\n      shr\n        /* \"#utility.yul\":8236:8273   */\n      swap1\n      pop\n        /* \"#utility.yul\":8163:8280   */\n      swap3\n      swap2\n      pop\n      pop\n      jump\t// out\n        /* \"#utility.yul\":8286:8455   */\n    tag_92:\n        /* \"#utility.yul\":8330:8336   */\n      0x00\n        /* \"#utility.yul\":8363:8414   */\n      tag_191\n        /* \"#utility.yul\":8411:8412   */\n      0x00\n        /* \"#utility.yul\":8407:8413   */\n      not\n        /* \"#utility.yul\":8399:8404   */\n      dup5\n        /* \"#utility.yul\":8396:8397   */\n      0x08\n        /* \"#utility.yul\":8392:8405   */\n      mul\n        /* \"#utility.yul\":8363:8414   */\n      tag_91\n      jump\t// in\n    tag_191:\n        /* \"#utility.yul\":8359:8415   */\n      not\n        /* \"#utility.yul\":8444:8448   */\n      dup1\n        /* \"#utility.yul\":8438:8442   */\n      dup4\n        /* \"#utility.yul\":8434:8449   */\n      and\n        /* \"#utility.yul\":8424:8449   */\n      swap2\n      pop\n        /* \"#utility.yul\":8337:8455   */\n      pop\n        /* \"#utility.yul\":8286:8455   */\n      swap3\n      swap2\n      pop\n      pop\n      jump\t// out\n        /* \"#utility.yul\":8460:8755   */\n    tag_93:\n        /* \"#utility.yul\":8536:8540   */\n      0x00\n        /* \"#utility.yul\":8682:8711   */\n      tag_193\n        /* \"#utility.yul\":8707:8710   */\n      dup4\n        /* \"#utility.yul\":8701:8705   */\n      dup4\n        /* \"#utility.yul\":8682:8711   */\n      tag_92\n      jump\t// in\n    tag_193:\n        /* \"#utility.yul\":8674:8711   */\n      swap2\n      pop\n        /* \"#utility.yul\":8744:8747   */\n      dup3\n        /* \"#utility.yul\":8741:8742   */\n      0x02\n        /* \"#utility.yul\":8737:8748   */\n      mul\n        /* \"#utility.yul\":8731:8735   */\n      dup3\n        /* \"#utility.yul\":8728:8749   */\n      or\n        /* \"#utility.yul\":8720:8749   */\n      swap1\n      pop\n        /* \"#utility.yul\":8460:8755   */\n      swap3\n      swap2\n      pop\n      pop\n      jump\t// out\n        /* \"#utility.yul\":8760:10163   */\n    tag_45:\n        /* \"#utility.yul\":8884:8928   */\n      tag_195\n        /* \"#utility.yul\":8924:8927   */\n      dup4\n        /* \"#utility.yul\":8919:8922   */\n      dup4\n        /* \"#utility.yul\":8884:8928   */\n      tag_77\n      jump\t// in\n    tag_195:\n        /* \"#utility.yul\":8993:9011   */\n      0xffffffffffffffff\n        /* \"#utility.yul\":8985:8991   */\n      dup2\n        /* \"#utility.yul\":8982:9012   */\n      gt\n        /* \"#utility.yul\":8979:9035   */\n      iszero\n      tag_196\n      jumpi\n        /* \"#utility.yul\":9015:9033   */\n      tag_197\n      tag_78\n      jump\t// in\n    tag_197:\n        /* \"#utility.yul\":8979:9035   */\n    tag_196:\n        /* \"#utility.yul\":9059:9097   */\n      tag_198\n        /* \"#utility.yul\":9091:9095   */\n      dup3\n        /* \"#utility.yul\":9085:9096   */\n      sload\n        /* \"#utility.yul\":9059:9097   */\n      tag_35\n      jump\t// in\n    tag_198:\n        /* \"#utility.yul\":9144:9211   */\n      tag_199\n        /* \"#utility.yul\":9204:9210   */\n      dup3\n        /* \"#utility.yul\":9196:9202   */\n      dup3\n        /* \"#utility.yul\":9190:9194   */\n      dup6\n        /* \"#utility.yul\":9144:9211   */\n      tag_90\n      jump\t// in\n    tag_199:\n        /* \"#utility.yul\":9238:9239   */\n      0x00\n        /* \"#utility.yul\":9267:9269   */\n      0x1f\n        /* \"#utility.yul\":9259:9265   */\n      dup4\n        /* \"#utility.yul\":9256:9270   */\n      gt\n        /* \"#utility.yul\":9284:9285   */\n      0x01\n        /* \"#utility.yul\":9279:9911   */\n      dup2\n      eq\n      tag_201\n      jumpi\n        /* \"#utility.yul\":9955:9956   */\n      0x00\n        /* \"#utility.yul\":9972:9978   */\n      dup5\n        /* \"#utility.yul\":9969:10053   */\n      iszero\n      tag_202\n      jumpi\n        /* \"#utility.yul\":10028:10037   */\n      dup3\n        /* \"#utility.yul\":10023:10026   */\n      dup8\n        /* \"#utility.yul\":10019:10038   */\n      add\n        /* \"#utility.yul\":10006:10039   */\n      calldataload\n        /* \"#utility.yul\":9997:10039   */\n      swap1\n      pop\n        /* \"#utility.yul\":9969:10053   */\n    tag_202:\n        /* \"#utility.yul\":10079:10146   */\n      tag_203\n        /* \"#utility.yul\":10139:10145   */\n      dup6\n        /* \"#utility.yul\":10132:10137   */\n      dup3\n        /* \"#utility.yul\":10079:10146   */\n      tag_93\n      jump\t// in\n    tag_203:\n        /* \"#utility.yul\":10073:10077   */\n      dup7\n        /* \"#utility.yul\":10066:10147   */\n      sstore\n        /* \"#utility.yul\":9928:10157   */\n      pop\n        /* \"#utility.yul\":9249:10157   */\n      jump(tag_200)\n        /* \"#utility.yul\":9279:9911   */\n    tag_201:\n        /* \"#utility.yul\":9331:9335   */\n      0x1f\n        /* \"#utility.yul\":9327:9336   */\n      not\n        /* \"#utility.yul\":9319:9325   */\n      dup5\n        /* \"#utility.yul\":9315:9337   */\n      and\n        /* \"#utility.yul\":9365:9402   */\n      tag_204\n        /* \"#utility.yul\":9397:9401   */\n      dup7\n        /* \"#utility.yul\":9365:9402   */\n      tag_79\n      jump\t// in\n    tag_204:\n        /* \"#utility.yul\":9424:9425   */\n      0x00\n        /* \"#utility.yul\":9438:9653   */\n    tag_205:\n        /* \"#utility.yul\":9452:9459   */\n      dup3\n        /* \"#utility.yul\":9449:9450   */\n      dup2\n        /* \"#utility.yul\":9446:9460   */\n      lt\n        /* \"#utility.yul\":9438:9653   */\n      iszero\n      tag_207\n      jumpi\n        /* \"#utility.yul\":9538:9547   */\n      dup5\n        /* \"#utility.yul\":9533:9536   */\n      dup10\n        /* \"#utility.yul\":9529:9548   */\n      add\n        /* \"#utility.yul\":9516:9549   */\n      calldataload\n        /* \"#utility.yul\":9508:9514   */\n      dup3\n        /* \"#utility.yul\":9501:9550   */\n      sstore\n        /* \"#utility.yul\":9589:9590   */\n      0x01\n        /* \"#utility.yul\":9581:9587   */\n      dup3\n        /* \"#utility.yul\":9577:9591   */\n      add\n        /* \"#utility.yul\":9567:9591   */\n      swap2\n      pop\n        /* \"#utility.yul\":9636:9638   */\n      0x20\n        /* \"#utility.yul\":9625:9634   */\n      dup6\n        /* \"#utility.yul\":9621:9639   */\n      add\n        /* \"#utility.yul\":9608:9639   */\n      swap5\n      pop\n        /* \"#utility.yul\":9475:9479   */\n      0x20\n        /* \"#utility.yul\":9472:9473   */\n      dup2\n        /* \"#utility.yul\":9468:9480   */\n      add\n        /* \"#utility.yul\":9463:9480   */\n      swap1\n      pop\n        /* \"#utility.yul\":9438:9653   */\n      jump(tag_205)\n    tag_207:\n        /* \"#utility.yul\":9681:9687   */\n      dup7\n        /* \"#utility.yul\":9672:9679   */\n      dup4\n        /* \"#utility.yul\":9669:9688   */\n      lt\n        /* \"#utility.yul\":9666:9852   */\n      iszero\n      tag_208\n      jumpi\n        /* \"#utility.yul\":9746:9755   */\n      dup5\n        /* \"#utility.yul\":9741:9744   */\n      dup10\n        /* \"#utility.yul\":9737:9756   */\n      add\n        /* \"#utility.yul\":9724:9757   */\n      calldataload\n        /* \"#utility.yul\":9789:9837   */\n      tag_209\n        /* \"#utility.yul\":9831:9835   */\n      0x1f\n        /* \"#utility.yul\":9823:9829   */\n      dup10\n        /* \"#utility.yul\":9819:9836   */\n      and\n        /* \"#utility.yul\":9808:9817   */\n      dup3\n        /* \"#utility.yul\":9789:9837   */\n      tag_92\n      jump\t// in\n    tag_209:\n        /* \"#utility.yul\":9781:9787   */\n      dup4\n        /* \"#utility.yul\":9774:9838   */\n      sstore\n        /* \"#utility.yul\":9689:9852   */\n      pop\n        /* \"#utility.yul\":9666:9852   */\n    tag_208:\n        /* \"#utility.yul\":9898:9899   */\n      0x01\n        /* \"#utility.yul\":9894:9895   */\n      0x02\n        /* \"#utility.yul\":9886:9892   */\n      dup9\n        /* \"#utility.yul\":9882:9896   */\n      mul\n        /* \"#utility.yul\":9878:9900   */\n      add\n        /* \"#utility.yul\":9872:9876   */\n      dup9\n        /* \"#utility.yul\":9865:9901   */\n      sstore\n        /* \"#utility.yul\":9286:9911   */\n      pop\n      pop\n      pop\n        /* \"#utility.yul\":9249:10157   */\n    tag_200:\n      pop\n        /* \"#utility.yul\":8859:10163   */\n      pop\n      pop\n      pop\n        /* \"#utility.yul\":8760:10163   */\n      pop\n      pop\n      pop\n      jump\t// out\n\n    auxdata: 0xa26469706673582212208d1d6b5011221311b375adb481a918e8d28335ed6b4b16d00e12640df1f196b964736f6c63430008120033\n}\n",
				"bytecode": {
					"linkReferences": {},
					"object": "608060405234801561001057600080fd5b50610922806100206000396000f3fe608060405234801561001057600080fd5b50600436106100575760003560e01c80639507d39a1461005c578063b49ff8b11461008d578063b6a46b3b146100a9578063bc8bc2b4146100c5578063cd111614146100f6575b600080fd5b6100766004803603810190610071919061038d565b610112565b604051610084929190610465565b60405180910390f35b6100a760048036038101906100a291906104fa565b610207565b005b6100c360048036038101906100be919061055a565b610246565b005b6100df60048036038101906100da919061038d565b61024a565b6040516100ed929190610465565b60405180910390f35b610110600480360381019061010b91906104fa565b610313565b005b60606000806000848154811061012b5761012a6105a7565b5b906000526020600020906002020160405180604001604052908160008201805461015490610605565b80601f016020809104026020016040519081016040528092919081815260200182805461018090610605565b80156101cd5780601f106101a2576101008083540402835291602001916101cd565b820191906000526020600020905b8154815290600101906020018083116101b057829003601f168201915b505050505081526020016001820160009054906101000a900460ff1615151515815250509050806000015181602001519250925050915091565b600080848154811061021c5761021b6105a7565b5b90600052602060002090600202019050828282600001918261023f92919061081c565b5050505050565b5050565b6000818154811061025a57600080fd5b906000526020600020906002020160009150905080600001805461027d90610605565b80601f01602080910402602001604051908101604052809291908181526020018280546102a990610605565b80156102f65780601f106102cb576101008083540402835291602001916102f6565b820191906000526020600020905b8154815290600101906020018083116102d957829003601f168201915b5050505050908060010160009054906101000a900460ff16905082565b818160008581548110610329576103286105a7565b5b9060005260206000209060020201600001918261034792919061081c565b50505050565b600080fd5b600080fd5b6000819050919050565b61036a81610357565b811461037557600080fd5b50565b60008135905061038781610361565b92915050565b6000602082840312156103a3576103a261034d565b5b60006103b184828501610378565b91505092915050565b600081519050919050565b600082825260208201905092915050565b60005b838110156103f45780820151818401526020810190506103d9565b60008484015250505050565b6000601f19601f8301169050919050565b600061041c826103ba565b61042681856103c5565b93506104368185602086016103d6565b61043f81610400565b840191505092915050565b60008115159050919050565b61045f8161044a565b82525050565b6000604082019050818103600083015261047f8185610411565b905061048e6020830184610456565b9392505050565b600080fd5b600080fd5b600080fd5b60008083601f8401126104ba576104b9610495565b5b8235905067ffffffffffffffff8111156104d7576104d661049a565b5b6020830191508360018202830111156104f3576104f261049f565b5b9250929050565b6000806000604084860312156105135761051261034d565b5b600061052186828701610378565b935050602084013567ffffffffffffffff81111561054257610541610352565b5b61054e868287016104a4565b92509250509250925092565b600080602083850312156105715761057061034d565b5b600083013567ffffffffffffffff81111561058f5761058e610352565b5b61059b858286016104a4565b92509250509250929050565b7f4e487b7100000000000000000000000000000000000000000000000000000000600052603260045260246000fd5b7f4e487b7100000000000000000000000000000000000000000000000000000000600052602260045260246000fd5b6000600282049050600182168061061d57607f821691505b6020821081036106305761062f6105d6565b5b50919050565b600082905092915050565b7f4e487b7100000000000000000000000000000000000000000000000000000000600052604160045260246000fd5b60008190508160005260206000209050919050565b60006020601f8301049050919050565b600082821b905092915050565b6000600883026106d27fffffffffffffffffffffffffffffffffffffffffffffffffffffffffffffffff82610695565b6106dc8683610695565b95508019841693508086168417925050509392505050565b6000819050919050565b600061071961071461070f84610357565b6106f4565b610357565b9050919050565b6000819050919050565b610733836106fe565b61074761073f82610720565b8484546106a2565b825550505050565b600090565b61075c61074f565b61076781848461072a565b505050565b5b8181101561078b57610780600082610754565b60018101905061076d565b5050565b601f8211156107d0576107a181610670565b6107aa84610685565b810160208510156107b9578190505b6107cd6107c585610685565b83018261076c565b50505b505050565b600082821c905092915050565b60006107f3600019846008026107d5565b1980831691505092915050565b600061080c83836107e2565b9150826002028217905092915050565b6108268383610636565b67ffffffffffffffff81111561083f5761083e610641565b5b6108498254610605565b61085482828561078f565b6000601f8311600181146108835760008415610871578287013590505b61087b8582610800565b8655506108e3565b601f19841661089186610670565b60005b828110156108b957848901358255600182019150602085019450602081019050610894565b868310156108d657848901356108d2601f8916826107e2565b8355505b6001600288020188555050505b5050505050505056fea26469706673582212208d1d6b5011221311b375adb481a918e8d28335ed6b4b16d00e12640df1f196b964736f6c63430008120033",
					"opcodes": "PUSH1 0x80 PUSH1 0x40 MSTORE CALLVALUE DUP1 ISZERO PUSH2 0x10 JUMPI PUSH1 0x0 DUP1 REVERT JUMPDEST POP PUSH2 0x922 DUP1 PUSH2 0x20 PUSH1 0x0 CODECOPY PUSH1 0x0 RETURN INVALID PUSH1 0x80 PUSH1 0x40 MSTORE CALLVALUE DUP1 ISZERO PUSH2 0x10 JUMPI PUSH1 0x0 DUP1 REVERT JUMPDEST POP PUSH1 0x4 CALLDATASIZE LT PUSH2 0x57 JUMPI PUSH1 0x0 CALLDATALOAD PUSH1 0xE0 SHR DUP1 PUSH4 0x9507D39A EQ PUSH2 0x5C JUMPI DUP1 PUSH4 0xB49FF8B1 EQ PUSH2 0x8D JUMPI DUP1 PUSH4 0xB6A46B3B EQ PUSH2 0xA9 JUMPI DUP1 PUSH4 0xBC8BC2B4 EQ PUSH2 0xC5 JUMPI DUP1 PUSH4 0xCD111614 EQ PUSH2 0xF6 JUMPI JUMPDEST PUSH1 0x0 DUP1 REVERT JUMPDEST PUSH2 0x76 PUSH1 0x4 DUP1 CALLDATASIZE SUB DUP2 ADD SWAP1 PUSH2 0x71 SWAP2 SWAP1 PUSH2 0x38D JUMP JUMPDEST PUSH2 0x112 JUMP JUMPDEST PUSH1 0x40 MLOAD PUSH2 0x84 SWAP3 SWAP2 SWAP1 PUSH2 0x465 JUMP JUMPDEST PUSH1 0x40 MLOAD DUP1 SWAP2 SUB SWAP1 RETURN JUMPDEST PUSH2 0xA7 PUSH1 0x4 DUP1 CALLDATASIZE SUB DUP2 ADD SWAP1 PUSH2 0xA2 SWAP2 SWAP1 PUSH2 0x4FA JUMP JUMPDEST PUSH2 0x207 JUMP JUMPDEST STOP JUMPDEST PUSH2 0xC3 PUSH1 0x4 DUP1 CALLDATASIZE SUB DUP2 ADD SWAP1 PUSH2 0xBE SWAP2 SWAP1 PUSH2 0x55A JUMP JUMPDEST PUSH2 0x246 JUMP JUMPDEST STOP JUMPDEST PUSH2 0xDF PUSH1 0x4 DUP1 CALLDATASIZE SUB DUP2 ADD SWAP1 PUSH2 0xDA SWAP2 SWAP1 PUSH2 0x38D JUMP JUMPDEST PUSH2 0x24A JUMP JUMPDEST PUSH1 0x40 MLOAD PUSH2 0xED SWAP3 SWAP2 SWAP1 PUSH2 0x465 JUMP JUMPDEST PUSH1 0x40 MLOAD DUP1 SWAP2 SUB SWAP1 RETURN JUMPDEST PUSH2 0x110 PUSH1 0x4 DUP1 CALLDATASIZE SUB DUP2 ADD SWAP1 PUSH2 0x10B SWAP2 SWAP1 PUSH2 0x4FA JUMP JUMPDEST PUSH2 0x313 JUMP JUMPDEST STOP JUMPDEST PUSH1 0x60 PUSH1 0x0 DUP1 PUSH1 0x0 DUP5 DUP2 SLOAD DUP2 LT PUSH2 0x12B JUMPI PUSH2 0x12A PUSH2 0x5A7 JUMP JUMPDEST JUMPDEST SWAP1 PUSH1 0x0 MSTORE PUSH1 0x20 PUSH1 0x0 KECCAK256 SWAP1 PUSH1 0x2 MUL ADD PUSH1 0x40 MLOAD DUP1 PUSH1 0x40 ADD PUSH1 0x40 MSTORE SWAP1 DUP2 PUSH1 0x0 DUP3 ADD DUP1 SLOAD PUSH2 0x154 SWAP1 PUSH2 0x605 JUMP JUMPDEST DUP1 PUSH1 0x1F ADD PUSH1 0x20 DUP1 SWAP2 DIV MUL PUSH1 0x20 ADD PUSH1 0x40 MLOAD SWAP1 DUP2 ADD PUSH1 0x40 MSTORE DUP1 SWAP3 SWAP2 SWAP1 DUP2 DUP2 MSTORE PUSH1 0x20 ADD DUP3 DUP1 SLOAD PUSH2 0x180 SWAP1 PUSH2 0x605 JUMP JUMPDEST DUP1 ISZERO PUSH2 0x1CD JUMPI DUP1 PUSH1 0x1F LT PUSH2 0x1A2 JUMPI PUSH2 0x100 DUP1 DUP4 SLOAD DIV MUL DUP4 MSTORE SWAP2 PUSH1 0x20 ADD SWAP2 PUSH2 0x1CD JUMP JUMPDEST DUP3 ADD SWAP2 SWAP1 PUSH1 0x0 MSTORE PUSH1 0x20 PUSH1 0x0 KECCAK256 SWAP1 JUMPDEST DUP2 SLOAD DUP2 MSTORE SWAP1 PUSH1 0x1 ADD SWAP1 PUSH1 0x20 ADD DUP1 DUP4 GT PUSH2 0x1B0 JUMPI DUP3 SWAP1 SUB PUSH1 0x1F AND DUP3 ADD SWAP2 JUMPDEST POP POP POP POP POP DUP2 MSTORE PUSH1 0x20 ADD PUSH1 0x1 DUP3 ADD PUSH1 0x0 SWAP1 SLOAD SWAP1 PUSH2 0x100 EXP SWAP1 DIV PUSH1 0xFF AND ISZERO ISZERO ISZERO ISZERO DUP2 MSTORE POP POP SWAP1 POP DUP1 PUSH1 0x0 ADD MLOAD DUP2 PUSH1 0x20 ADD MLOAD SWAP3 POP SWAP3 POP POP SWAP2 POP SWAP2 JUMP JUMPDEST PUSH1 0x0 DUP1 DUP5 DUP2 SLOAD DUP2 LT PUSH2 0x21C JUMPI PUSH2 0x21B PUSH2 0x5A7 JUMP JUMPDEST JUMPDEST SWAP1 PUSH1 0x0 MSTORE PUSH1 0x20 PUSH1 0x0 KECCAK256 SWAP1 PUSH1 0x2 MUL ADD SWAP1 POP DUP3 DUP3 DUP3 PUSH1 0x0 ADD SWAP2 DUP3 PUSH2 0x23F SWAP3 SWAP2 SWAP1 PUSH2 0x81C JUMP JUMPDEST POP POP POP POP POP JUMP JUMPDEST POP POP JUMP JUMPDEST PUSH1 0x0 DUP2 DUP2 SLOAD DUP2 LT PUSH2 0x25A JUMPI PUSH1 0x0 DUP1 REVERT JUMPDEST SWAP1 PUSH1 0x0 MSTORE PUSH1 0x20 PUSH1 0x0 KECCAK256 SWAP1 PUSH1 0x2 MUL ADD PUSH1 0x0 SWAP2 POP SWAP1 POP DUP1 PUSH1 0x0 ADD DUP1 SLOAD PUSH2 0x27D SWAP1 PUSH2 0x605 JUMP JUMPDEST DUP1 PUSH1 0x1F ADD PUSH1 0x20 DUP1 SWAP2 DIV MUL PUSH1 0x20 ADD PUSH1 0x40 MLOAD SWAP1 DUP2 ADD PUSH1 0x40 MSTORE DUP1 SWAP3 SWAP2 SWAP1 DUP2 DUP2 MSTORE PUSH1 0x20 ADD DUP3 DUP1 SLOAD PUSH2 0x2A9 SWAP1 PUSH2 0x605 JUMP JUMPDEST DUP1 ISZERO PUSH2 0x2F6 JUMPI DUP1 PUSH1 0x1F LT PUSH2 0x2CB JUMPI PUSH2 0x100 DUP1 DUP4 SLOAD DIV MUL DUP4 MSTORE SWAP2 PUSH1 0x20 ADD SWAP2 PUSH2 0x2F6 JUMP JUMPDEST DUP3 ADD SWAP2 SWAP1 PUSH1 0x0 MSTORE PUSH1 0x20 PUSH1 0x0 KECCAK256 SWAP1 JUMPDEST DUP2 SLOAD DUP2 MSTORE SWAP1 PUSH1 0x1 ADD SWAP1 PUSH1 0x20 ADD DUP1 DUP4 GT PUSH2 0x2D9 JUMPI DUP3 SWAP1 SUB PUSH1 0x1F AND DUP3 ADD SWAP2 JUMPDEST POP POP POP POP POP SWAP1 DUP1 PUSH1 0x1 ADD PUSH1 0x0 SWAP1 SLOAD SWAP1 PUSH2 0x100 EXP SWAP1 DIV PUSH1 0xFF AND SWAP1 POP DUP3 JUMP JUMPDEST DUP2 DUP2 PUSH1 0x0 DUP6 DUP2 SLOAD DUP2 LT PUSH2 0x329 JUMPI PUSH2 0x328 PUSH2 0x5A7 JUMP JUMPDEST JUMPDEST SWAP1 PUSH1 0x0 MSTORE PUSH1 0x20 PUSH1 0x0 KECCAK256 SWAP1 PUSH1 0x2 MUL ADD PUSH1 0x0 ADD SWAP2 DUP3 PUSH2 0x347 SWAP3 SWAP2 SWAP1 PUSH2 0x81C JUMP JUMPDEST POP POP POP POP JUMP JUMPDEST PUSH1 0x0 DUP1 REVERT JUMPDEST PUSH1 0x0 DUP1 REVERT JUMPDEST PUSH1 0x0 DUP2 SWAP1 POP SWAP2 SWAP1 POP JUMP JUMPDEST PUSH2 0x36A DUP2 PUSH2 0x357 JUMP JUMPDEST DUP2 EQ PUSH2 0x375 JUMPI PUSH1 0x0 DUP1 REVERT JUMPDEST POP JUMP JUMPDEST PUSH1 0x0 DUP2 CALLDATALOAD SWAP1 POP PUSH2 0x387 DUP2 PUSH2 0x361 JUMP JUMPDEST SWAP3 SWAP2 POP POP JUMP JUMPDEST PUSH1 0x0 PUSH1 0x20 DUP3 DUP5 SUB SLT ISZERO PUSH2 0x3A3 JUMPI PUSH2 0x3A2 PUSH2 0x34D JUMP JUMPDEST JUMPDEST PUSH1 0x0 PUSH2 0x3B1 DUP5 DUP3 DUP6 ADD PUSH2 0x378 JUMP JUMPDEST SWAP2 POP POP SWAP3 SWAP2 POP POP JUMP JUMPDEST PUSH1 0x0 DUP2 MLOAD SWAP1 POP SWAP2 SWAP1 POP JUMP JUMPDEST PUSH1 0x0 DUP3 DUP3 MSTORE PUSH1 0x20 DUP3 ADD SWAP1 POP SWAP3 SWAP2 POP POP JUMP JUMPDEST PUSH1 0x0 JUMPDEST DUP4 DUP2 LT ISZERO PUSH2 0x3F4 JUMPI DUP1 DUP3 ADD MLOAD DUP2 DUP5 ADD MSTORE PUSH1 0x20 DUP2 ADD SWAP1 POP PUSH2 0x3D9 JUMP JUMPDEST PUSH1 0x0 DUP5 DUP5 ADD MSTORE POP POP POP POP JUMP JUMPDEST PUSH1 0x0 PUSH1 0x1F NOT PUSH1 0x1F DUP4 ADD AND SWAP1 POP SWAP2 SWAP1 POP JUMP JUMPDEST PUSH1 0x0 PUSH2 0x41C DUP3 PUSH2 0x3BA JUMP JUMPDEST PUSH2 0x426 DUP2 DUP6 PUSH2 0x3C5 JUMP JUMPDEST SWAP4 POP PUSH2 0x436 DUP2 DUP6 PUSH1 0x20 DUP7 ADD PUSH2 0x3D6 JUMP JUMPDEST PUSH2 0x43F DUP2 PUSH2 0x400 JUMP JUMPDEST DUP5 ADD SWAP2 POP POP SWAP3 SWAP2 POP POP JUMP JUMPDEST PUSH1 0x0 DUP2 ISZERO ISZERO SWAP1 POP SWAP2 SWAP1 POP JUMP JUMPDEST PUSH2 0x45F DUP2 PUSH2 0x44A JUMP JUMPDEST DUP3 MSTORE POP POP JUMP JUMPDEST PUSH1 0x0 PUSH1 0x40 DUP3 ADD SWAP1 POP DUP2 DUP2 SUB PUSH1 0x0 DUP4 ADD MSTORE PUSH2 0x47F DUP2 DUP6 PUSH2 0x411 JUMP JUMPDEST SWAP1 POP PUSH2 0x48E PUSH1 0x20 DUP4 ADD DUP5 PUSH2 0x456 JUMP JUMPDEST SWAP4 SWAP3 POP POP POP JUMP JUMPDEST PUSH1 0x0 DUP1 REVERT JUMPDEST PUSH1 0x0 DUP1 REVERT JUMPDEST PUSH1 0x0 DUP1 REVERT JUMPDEST PUSH1 0x0 DUP1 DUP4 PUSH1 0x1F DUP5 ADD SLT PUSH2 0x4BA JUMPI PUSH2 0x4B9 PUSH2 0x495 JUMP JUMPDEST JUMPDEST DUP3 CALLDATALOAD SWAP1 POP PUSH8 0xFFFFFFFFFFFFFFFF DUP2 GT ISZERO PUSH2 0x4D7 JUMPI PUSH2 0x4D6 PUSH2 0x49A JUMP JUMPDEST JUMPDEST PUSH1 0x20 DUP4 ADD SWAP2 POP DUP4 PUSH1 0x1 DUP3 MUL DUP4 ADD GT ISZERO PUSH2 0x4F3 JUMPI PUSH2 0x4F2 PUSH2 0x49F JUMP JUMPDEST JUMPDEST SWAP3 POP SWAP3 SWAP1 POP JUMP JUMPDEST PUSH1 0x0 DUP1 PUSH1 0x0 PUSH1 0x40 DUP5 DUP7 SUB SLT ISZERO PUSH2 0x513 JUMPI PUSH2 0x512 PUSH2 0x34D JUMP JUMPDEST JUMPDEST PUSH1 0x0 PUSH2 0x521 DUP7 DUP3 DUP8 ADD PUSH2 0x378 JUMP JUMPDEST SWAP4 POP POP PUSH1 0x20 DUP5 ADD CALLDATALOAD PUSH8 0xFFFFFFFFFFFFFFFF DUP2 GT ISZERO PUSH2 0x542 JUMPI PUSH2 0x541 PUSH2 0x352 JUMP JUMPDEST JUMPDEST PUSH2 0x54E DUP7 DUP3 DUP8 ADD PUSH2 0x4A4 JUMP JUMPDEST SWAP3 POP SWAP3 POP POP SWAP3 POP SWAP3 POP SWAP3 JUMP JUMPDEST PUSH1 0x0 DUP1 PUSH1 0x20 DUP4 DUP6 SUB SLT ISZERO PUSH2 0x571 JUMPI PUSH2 0x570 PUSH2 0x34D JUMP JUMPDEST JUMPDEST PUSH1 0x0 DUP4 ADD CALLDATALOAD PUSH8 0xFFFFFFFFFFFFFFFF DUP2 GT ISZERO PUSH2 0x58F JUMPI PUSH2 0x58E PUSH2 0x352 JUMP JUMPDEST JUMPDEST PUSH2 0x59B DUP6 DUP3 DUP7 ADD PUSH2 0x4A4 JUMP JUMPDEST SWAP3 POP SWAP3 POP POP SWAP3 POP SWAP3 SWAP1 POP JUMP JUMPDEST PUSH32 0x4E487B7100000000000000000000000000000000000000000000000000000000 PUSH1 0x0 MSTORE PUSH1 0x32 PUSH1 0x4 MSTORE PUSH1 0x24 PUSH1 0x0 REVERT JUMPDEST PUSH32 0x4E487B7100000000000000000000000000000000000000000000000000000000 PUSH1 0x0 MSTORE PUSH1 0x22 PUSH1 0x4 MSTORE PUSH1 0x24 PUSH1 0x0 REVERT JUMPDEST PUSH1 0x0 PUSH1 0x2 DUP3 DIV SWAP1 POP PUSH1 0x1 DUP3 AND DUP1 PUSH2 0x61D JUMPI PUSH1 0x7F DUP3 AND SWAP2 POP JUMPDEST PUSH1 0x20 DUP3 LT DUP2 SUB PUSH2 0x630 JUMPI PUSH2 0x62F PUSH2 0x5D6 JUMP JUMPDEST JUMPDEST POP SWAP2 SWAP1 POP JUMP JUMPDEST PUSH1 0x0 DUP3 SWAP1 POP SWAP3 SWAP2 POP POP JUMP JUMPDEST PUSH32 0x4E487B7100000000000000000000000000000000000000000000000000000000 PUSH1 0x0 MSTORE PUSH1 0x41 PUSH1 0x4 MSTORE PUSH1 0x24 PUSH1 0x0 REVERT JUMPDEST PUSH1 0x0 DUP2 SWAP1 POP DUP2 PUSH1 0x0 MSTORE PUSH1 0x20 PUSH1 0x0 KECCAK256 SWAP1 POP SWAP2 SWAP1 POP JUMP JUMPDEST PUSH1 0x0 PUSH1 0x20 PUSH1 0x1F DUP4 ADD DIV SWAP1 POP SWAP2 SWAP1 POP JUMP JUMPDEST PUSH1 0x0 DUP3 DUP3 SHL SWAP1 POP SWAP3 SWAP2 POP POP JUMP JUMPDEST PUSH1 0x0 PUSH1 0x8 DUP4 MUL PUSH2 0x6D2 PUSH32 0xFFFFFFFFFFFFFFFFFFFFFFFFFFFFFFFFFFFFFFFFFFFFFFFFFFFFFFFFFFFFFFFF DUP3 PUSH2 0x695 JUMP JUMPDEST PUSH2 0x6DC DUP7 DUP4 PUSH2 0x695 JUMP JUMPDEST SWAP6 POP DUP1 NOT DUP5 AND SWAP4 POP DUP1 DUP7 AND DUP5 OR SWAP3 POP POP POP SWAP4 SWAP3 POP POP POP JUMP JUMPDEST PUSH1 0x0 DUP2 SWAP1 POP SWAP2 SWAP1 POP JUMP JUMPDEST PUSH1 0x0 PUSH2 0x719 PUSH2 0x714 PUSH2 0x70F DUP5 PUSH2 0x357 JUMP JUMPDEST PUSH2 0x6F4 JUMP JUMPDEST PUSH2 0x357 JUMP JUMPDEST SWAP1 POP SWAP2 SWAP1 POP JUMP JUMPDEST PUSH1 0x0 DUP2 SWAP1 POP SWAP2 SWAP1 POP JUMP JUMPDEST PUSH2 0x733 DUP4 PUSH2 0x6FE JUMP JUMPDEST PUSH2 0x747 PUSH2 0x73F DUP3 PUSH2 0x720 JUMP JUMPDEST DUP5 DUP5 SLOAD PUSH2 0x6A2 JUMP JUMPDEST DUP3 SSTORE POP POP POP POP JUMP JUMPDEST PUSH1 0x0 SWAP1 JUMP JUMPDEST PUSH2 0x75C PUSH2 0x74F JUMP JUMPDEST PUSH2 0x767 DUP2 DUP5 DUP5 PUSH2 0x72A JUMP JUMPDEST POP POP POP JUMP JUMPDEST JUMPDEST DUP2 DUP2 LT ISZERO PUSH2 0x78B JUMPI PUSH2 0x780 PUSH1 0x0 DUP3 PUSH2 0x754 JUMP JUMPDEST PUSH1 0x1 DUP2 ADD SWAP1 POP PUSH2 0x76D JUMP JUMPDEST POP POP JUMP JUMPDEST PUSH1 0x1F DUP3 GT ISZERO PUSH2 0x7D0 JUMPI PUSH2 0x7A1 DUP2 PUSH2 0x670 JUMP JUMPDEST PUSH2 0x7AA DUP5 PUSH2 0x685 JUMP JUMPDEST DUP2 ADD PUSH1 0x20 DUP6 LT ISZERO PUSH2 0x7B9 JUMPI DUP2 SWAP1 POP JUMPDEST PUSH2 0x7CD PUSH2 0x7C5 DUP6 PUSH2 0x685 JUMP JUMPDEST DUP4 ADD DUP3 PUSH2 0x76C JUMP JUMPDEST POP POP JUMPDEST POP POP POP JUMP JUMPDEST PUSH1 0x0 DUP3 DUP3 SHR SWAP1 POP SWAP3 SWAP2 POP POP JUMP JUMPDEST PUSH1 0x0 PUSH2 0x7F3 PUSH1 0x0 NOT DUP5 PUSH1 0x8 MUL PUSH2 0x7D5 JUMP JUMPDEST NOT DUP1 DUP4 AND SWAP2 POP POP SWAP3 SWAP2 POP POP JUMP JUMPDEST PUSH1 0x0 PUSH2 0x80C DUP4 DUP4 PUSH2 0x7E2 JUMP JUMPDEST SWAP2 POP DUP3 PUSH1 0x2 MUL DUP3 OR SWAP1 POP SWAP3 SWAP2 POP POP JUMP JUMPDEST PUSH2 0x826 DUP4 DUP4 PUSH2 0x636 JUMP JUMPDEST PUSH8 0xFFFFFFFFFFFFFFFF DUP2 GT ISZERO PUSH2 0x83F JUMPI PUSH2 0x83E PUSH2 0x641 JUMP JUMPDEST JUMPDEST PUSH2 0x849 DUP3 SLOAD PUSH2 0x605 JUMP JUMPDEST PUSH2 0x854 DUP3 DUP3 DUP6 PUSH2 0x78F JUMP JUMPDEST PUSH1 0x0 PUSH1 0x1F DUP4 GT PUSH1 0x1 DUP2 EQ PUSH2 0x883 JUMPI PUSH1 0x0 DUP5 ISZERO PUSH2 0x871 JUMPI DUP3 DUP8 ADD CALLDATALOAD SWAP1 POP JUMPDEST PUSH2 0x87B DUP6 DUP3 PUSH2 0x800 JUMP JUMPDEST DUP7 SSTORE POP PUSH2 0x8E3 JUMP JUMPDEST PUSH1 0x1F NOT DUP5 AND PUSH2 0x891 DUP7 PUSH2 0x670 JUMP JUMPDEST PUSH1 0x0 JUMPDEST DUP3 DUP2 LT ISZERO PUSH2 0x8B9 JUMPI DUP5 DUP10 ADD CALLDATALOAD DUP3 SSTORE PUSH1 0x1 DUP3 ADD SWAP2 POP PUSH1 0x20 DUP6 ADD SWAP5 POP PUSH1 0x20 DUP2 ADD SWAP1 POP PUSH2 0x894 JUMP JUMPDEST DUP7 DUP4 LT ISZERO PUSH2 0x8D6 JUMPI DUP5 DUP10 ADD CALLDATALOAD PUSH2 0x8D2 PUSH1 0x1F DUP10 AND DUP3 PUSH2 0x7E2 JUMP JUMPDEST DUP4 SSTORE POP JUMPDEST PUSH1 0x1 PUSH1 0x2 DUP9 MUL ADD DUP9 SSTORE POP POP POP JUMPDEST POP POP POP POP POP POP POP JUMP INVALID LOG2 PUSH5 0x6970667358 0x22 SLT KECCAK256 DUP14 SAR PUSH12 0x5011221311B375ADB481A918 0xE8 0xD2 DUP4 CALLDATALOAD 0xED PUSH12 0x4B16D00E12640DF1F196B964 PUSH20 0x6F6C634300081200330000000000000000000000 "
				},
				"gasEstimates": {
					"creation": {
						"codeDepositCost": "467600",
						"executionCost": "505",
						"totalCost": "468105"
					},
					"external": {
						"create(string)": "496",
						"get(uint256)": "infinite",
						"todos(uint256)": "infinite",
						"updateText(uint256,string)": "infinite",
						"updateText2(uint256,string)": "infinite"
					}
				},
				"methodIdentifiers": {
					"create(string)": "b6a46b3b",
					"get(uint256)": "9507d39a",
					"todos(uint256)": "bc8bc2b4",
					"updateText(uint256,string)": "cd111614",
					"updateText2(uint256,string)": "b49ff8b1"
				}
			},
			"storageLayout": {
				"storage": [
					{
						"astId": 10,
						"contract": "contracts/Programs/Struct.sol:Struct",
						"label": "todos",
						"offset": 0,
						"slot": "0",
						"type": "t_array(t_struct(Todo)6_storage)dyn_storage"
					}
				],
				"types": {
					"t_array(t_struct(Todo)6_storage)dyn_storage": {
						"base": "t_struct(Todo)6_storage",
						"encoding": "dynamic_array",
						"label": "struct Struct.Todo[]",
						"numberOfBytes": "32"
					},
					"t_bool": {
						"encoding": "inplace",
						"label": "bool",
						"numberOfBytes": "1"
					},
					"t_string_storage": {
						"encoding": "bytes",
						"label": "string",
						"numberOfBytes": "32"
					},
					"t_struct(Todo)6_storage": {
						"encoding": "inplace",
						"label": "struct Struct.Todo",
						"members": [
							{
								"astId": 3,
								"contract": "contracts/Programs/Struct.sol:Struct",
								"label": "text",
								"offset": 0,
								"slot": "0",
								"type": "t_string_storage"
							},
							{
								"astId": 5,
								"contract": "contracts/Programs/Struct.sol:Struct",
								"label": "completed",
								"offset": 0,
								"slot": "1",
								"type": "t_bool"
							}
						],
						"numberOfBytes": "64"
					}
				}
			},
			"userdoc": {
				"kind": "user",
				"methods": {},
				"version": 1
			}
		}
	}
}