{
	"contracts/Programs/Error.sol": {
		"Error": {
			"abi": [
				{
					"inputs": [],
					"name": "PrintArray",
					"outputs": [
						{
							"internalType": "uint256",
							"name": "",
							"type": "uint256"
						}
					],
					"stateMutability": "view",
					"type": "function"
				},
				{
					"inputs": [
						{
							"internalType": "uint256",
							"name": "",
							"type": "uint256"
						}
					],
					"name": "a",
					"outputs": [
						{
							"internalType": "uint256",
							"name": "",
							"type": "uint256"
						}
					],
					"stateMutability": "view",
					"type": "function"
				},
				{
					"inputs": [
						{
							"internalType": "uint256",
							"name": "_i",
							"type": "uint256"
						}
					],
					"name": "ck",
					"outputs": [],
					"stateMutability": "nonpayable",
					"type": "function"
				},
				{
					"inputs": [],
					"name": "l",
					"outputs": [
						{
							"internalType": "uint256",
							"name": "",
							"type": "uint256"
						}
					],
					"stateMutability": "view",
					"type": "function"
				},
				{
					"inputs": [
						{
							"internalType": "uint256",
							"name": "_b",
							"type": "uint256"
						},
						{
							"internalType": "bool",
							"name": "c",
							"type": "bool"
						}
					],
					"name": "returnMany",
					"outputs": [
						{
							"internalType": "uint256",
							"name": "",
							"type": "uint256"
						},
						{
							"internalType": "bool",
							"name": "",
							"type": "bool"
						}
					],
					"stateMutability": "pure",
					"type": "function"
				},
				{
					"inputs": [],
					"name": "test",
					"outputs": [
						{
							"internalType": "uint256",
							"name": "",
							"type": "uint256"
						}
					],
					"stateMutability": "view",
					"type": "function"
				},
				{
					"inputs": [
						{
							"internalType": "uint256",
							"name": "_j",
							"type": "uint256"
						}
					],
					"name": "testRevert",
					"outputs": [],
					"stateMutability": "nonpayable",
					"type": "function"
				}
			],
			"devdoc": {
				"kind": "dev",
				"methods": {},
				"version": 1
			},
			"evm": {
				"assembly": "    /* \"contracts/Programs/Error.sol\":58:706  contract Error{... */\n  mstore(0x40, 0x80)\n    /* \"contracts/Programs/Error.sol\":81:111  uint [] public a = [1,2,3,4,4] */\n  mload(0x40)\n  dup1\n  0xa0\n  add\n  0x40\n  mstore\n  dup1\n    /* \"contracts/Programs/Error.sol\":101:102  1 */\n  0x01\n    /* \"contracts/Programs/Error.sol\":81:111  uint [] public a = [1,2,3,4,4] */\n  0xff\n  and\n  dup2\n  mstore\n  0x20\n  add\n    /* \"contracts/Programs/Error.sol\":103:104  2 */\n  0x02\n    /* \"contracts/Programs/Error.sol\":81:111  uint [] public a = [1,2,3,4,4] */\n  0xff\n  and\n  dup2\n  mstore\n  0x20\n  add\n    /* \"contracts/Programs/Error.sol\":105:106  3 */\n  0x03\n    /* \"contracts/Programs/Error.sol\":81:111  uint [] public a = [1,2,3,4,4] */\n  0xff\n  and\n  dup2\n  mstore\n  0x20\n  add\n    /* \"contracts/Programs/Error.sol\":107:108  4 */\n  0x04\n    /* \"contracts/Programs/Error.sol\":81:111  uint [] public a = [1,2,3,4,4] */\n  0xff\n  and\n  dup2\n  mstore\n  0x20\n  add\n    /* \"contracts/Programs/Error.sol\":109:110  4 */\n  0x04\n    /* \"contracts/Programs/Error.sol\":81:111  uint [] public a = [1,2,3,4,4] */\n  0xff\n  and\n  dup2\n  mstore\n  pop\n  0x00\n  swap1\n  0x05\n  tag_1\n  swap3\n  swap2\n  swap1\n  tag_2\n  jump\t// in\ntag_1:\n  pop\n    /* \"contracts/Programs/Error.sol\":132:133  a */\n  0x00\n    /* \"contracts/Programs/Error.sol\":132:140  a.length */\n  dup1\n  sload\n  swap1\n  pop\n    /* \"contracts/Programs/Error.sol\":118:140  uint public l=a.length */\n  0x01\n  sstore\n    /* \"contracts/Programs/Error.sol\":58:706  contract Error{... */\n  callvalue\n  dup1\n  iszero\n  tag_3\n  jumpi\n  0x00\n  dup1\n  revert\ntag_3:\n  pop\n  jump(tag_4)\ntag_2:\n  dup3\n  dup1\n  sload\n  dup3\n  dup3\n  sstore\n  swap1\n  0x00\n  mstore\n  keccak256(0x00, 0x20)\n  swap1\n  dup2\n  add\n  swap3\n  dup3\n  iszero\n  tag_5\n  jumpi\n  swap2\n  0x20\n  mul\n  dup3\n  add\ntag_6:\n  dup3\n  dup2\n  gt\n  iszero\n  tag_7\n  jumpi\n  dup3\n  mload\n  dup3\n  swap1\n  0xff\n  and\n  swap1\n  sstore\n  swap2\n  0x20\n  add\n  swap2\n  swap1\n  0x01\n  add\n  swap1\n  jump(tag_6)\ntag_7:\ntag_5:\n  pop\n  swap1\n  pop\n  tag_8\n  swap2\n  swap1\n  tag_9\n  jump\t// in\ntag_8:\n  pop\n  swap1\n  jump\t// out\ntag_9:\ntag_10:\n  dup1\n  dup3\n  gt\n  iszero\n  tag_11\n  jumpi\n  0x00\n  dup2\n  0x00\n  swap1\n  sstore\n  pop\n  0x01\n  add\n  jump(tag_10)\ntag_11:\n  pop\n  swap1\n  jump\t// out\ntag_4:\n  dataSize(sub_0)\n  dup1\n  dataOffset(sub_0)\n  0x00\n  codecopy\n  0x00\n  return\nstop\n\nsub_0: assembly {\n        /* \"contracts/Programs/Error.sol\":58:706  contract Error{... */\n      mstore(0x40, 0x80)\n      callvalue\n      dup1\n      iszero\n      tag_1\n      jumpi\n      0x00\n      dup1\n      revert\n    tag_1:\n      pop\n      jumpi(tag_2, lt(calldatasize, 0x04))\n      shr(0xe0, calldataload(0x00))\n      dup1\n      0xb4647d52\n      gt\n      tag_10\n      jumpi\n      dup1\n      0xb4647d52\n      eq\n      tag_6\n      jumpi\n      dup1\n      0xece866b9\n      eq\n      tag_7\n      jumpi\n      dup1\n      0xf0fdf834\n      eq\n      tag_8\n      jumpi\n      dup1\n      0xf8a8fd6d\n      eq\n      tag_9\n      jumpi\n      jump(tag_2)\n    tag_10:\n      dup1\n      0x20987767\n      eq\n      tag_3\n      jumpi\n      dup1\n      0x3d37a08b\n      eq\n      tag_4\n      jumpi\n      dup1\n      0x822e8f9f\n      eq\n      tag_5\n      jumpi\n    tag_2:\n      0x00\n      dup1\n      revert\n        /* \"contracts/Programs/Error.sol\":290:415  function testRevert(uint _j) public {... */\n    tag_3:\n      tag_11\n      0x04\n      dup1\n      calldatasize\n      sub\n      dup2\n      add\n      swap1\n      tag_12\n      swap2\n      swap1\n      tag_13\n      jump\t// in\n    tag_12:\n      tag_14\n      jump\t// in\n    tag_11:\n      stop\n        /* \"contracts/Programs/Error.sol\":170:284  function ck(uint _i) public {... */\n    tag_4:\n      tag_15\n      0x04\n      dup1\n      calldatasize\n      sub\n      dup2\n      add\n      swap1\n      tag_16\n      swap2\n      swap1\n      tag_13\n      jump\t// in\n    tag_16:\n      tag_17\n      jump\t// in\n    tag_15:\n      stop\n        /* \"contracts/Programs/Error.sol\":425:525  function returnMany(uint _b, bool c) public pure returns(uint, bool){... */\n    tag_5:\n      tag_18\n      0x04\n      dup1\n      calldatasize\n      sub\n      dup2\n      add\n      swap1\n      tag_19\n      swap2\n      swap1\n      tag_20\n      jump\t// in\n    tag_19:\n      tag_21\n      jump\t// in\n    tag_18:\n      mload(0x40)\n      tag_22\n      swap3\n      swap2\n      swap1\n      tag_23\n      jump\t// in\n    tag_22:\n      mload(0x40)\n      dup1\n      swap2\n      sub\n      swap1\n      return\n        /* \"contracts/Programs/Error.sol\":531:701  function PrintArray() public view returns(uint){... */\n    tag_6:\n      tag_24\n      tag_25\n      jump\t// in\n    tag_24:\n      mload(0x40)\n      tag_26\n      swap2\n      swap1\n      tag_27\n      jump\t// in\n    tag_26:\n      mload(0x40)\n      dup1\n      swap2\n      sub\n      swap1\n      return\n        /* \"contracts/Programs/Error.sol\":118:140  uint public l=a.length */\n    tag_7:\n      tag_28\n      tag_29\n      jump\t// in\n    tag_28:\n      mload(0x40)\n      tag_30\n      swap2\n      swap1\n      tag_27\n      jump\t// in\n    tag_30:\n      mload(0x40)\n      dup1\n      swap2\n      sub\n      swap1\n      return\n        /* \"contracts/Programs/Error.sol\":81:111  uint [] public a = [1,2,3,4,4] */\n    tag_8:\n      tag_31\n      0x04\n      dup1\n      calldatasize\n      sub\n      dup2\n      add\n      swap1\n      tag_32\n      swap2\n      swap1\n      tag_13\n      jump\t// in\n    tag_32:\n      tag_33\n      jump\t// in\n    tag_31:\n      mload(0x40)\n      tag_34\n      swap2\n      swap1\n      tag_27\n      jump\t// in\n    tag_34:\n      mload(0x40)\n      dup1\n      swap2\n      sub\n      swap1\n      return\n        /* \"contracts/Programs/Error.sol\":147:163  uint public test */\n    tag_9:\n      tag_35\n      tag_36\n      jump\t// in\n    tag_35:\n      mload(0x40)\n      tag_37\n      swap2\n      swap1\n      tag_27\n      jump\t// in\n    tag_37:\n      mload(0x40)\n      dup1\n      swap2\n      sub\n      swap1\n      return\n        /* \"contracts/Programs/Error.sol\":290:415  function testRevert(uint _j) public {... */\n    tag_14:\n        /* \"contracts/Programs/Error.sol\":343:345  20 */\n      0x14\n        /* \"contracts/Programs/Error.sol\":340:342  _j */\n      dup2\n        /* \"contracts/Programs/Error.sol\":340:345  _j>20 */\n      gt\n        /* \"contracts/Programs/Error.sol\":337:388  if(_j>20){... */\n      iszero\n      tag_39\n      jumpi\n        /* \"contracts/Programs/Error.sol\":361:376  revert(\"_j>20\") */\n      mload(0x40)\n      0x08c379a000000000000000000000000000000000000000000000000000000000\n      dup2\n      mstore\n      0x04\n      add\n      tag_40\n      swap1\n      tag_41\n      jump\t// in\n    tag_40:\n      mload(0x40)\n      dup1\n      swap2\n      sub\n      swap1\n      revert\n        /* \"contracts/Programs/Error.sol\":337:388  if(_j>20){... */\n    tag_39:\n        /* \"contracts/Programs/Error.sol\":405:407  _j */\n      dup1\n        /* \"contracts/Programs/Error.sol\":398:402  test */\n      0x02\n        /* \"contracts/Programs/Error.sol\":398:407  test = _j */\n      dup2\n      swap1\n      sstore\n      pop\n        /* \"contracts/Programs/Error.sol\":290:415  function testRevert(uint _j) public {... */\n      pop\n      jump\t// out\n        /* \"contracts/Programs/Error.sol\":170:284  function ck(uint _i) public {... */\n    tag_17:\n        /* \"contracts/Programs/Error.sol\":221:223  10 */\n      0x0a\n        /* \"contracts/Programs/Error.sol\":217:219  _i */\n      dup2\n        /* \"contracts/Programs/Error.sol\":217:223  _i<=10 */\n      gt\n      iszero\n        /* \"contracts/Programs/Error.sol\":209:231  require(_i<=10,\"i>10\") */\n      tag_43\n      jumpi\n      mload(0x40)\n      0x08c379a000000000000000000000000000000000000000000000000000000000\n      dup2\n      mstore\n      0x04\n      add\n      tag_44\n      swap1\n      tag_45\n      jump\t// in\n    tag_44:\n      mload(0x40)\n      dup1\n      swap2\n      sub\n      swap1\n      revert\n    tag_43:\n        /* \"contracts/Programs/Error.sol\":272:274  _i */\n      dup1\n        /* \"contracts/Programs/Error.sol\":265:269  test */\n      0x02\n        /* \"contracts/Programs/Error.sol\":265:274  test = _i */\n      dup2\n      swap1\n      sstore\n      pop\n        /* \"contracts/Programs/Error.sol\":170:284  function ck(uint _i) public {... */\n      pop\n      jump\t// out\n        /* \"contracts/Programs/Error.sol\":425:525  function returnMany(uint _b, bool c) public pure returns(uint, bool){... */\n    tag_21:\n        /* \"contracts/Programs/Error.sol\":482:486  uint */\n      0x00\n        /* \"contracts/Programs/Error.sol\":488:492  bool */\n      dup1\n        /* \"contracts/Programs/Error.sol\":512:514  _b */\n      dup4\n        /* \"contracts/Programs/Error.sol\":515:516  c */\n      dup4\n        /* \"contracts/Programs/Error.sol\":504:517  return (_b,c) */\n      swap2\n      pop\n      swap2\n      pop\n        /* \"contracts/Programs/Error.sol\":425:525  function returnMany(uint _b, bool c) public pure returns(uint, bool){... */\n      swap3\n      pop\n      swap3\n      swap1\n      pop\n      jump\t// out\n        /* \"contracts/Programs/Error.sol\":531:701  function PrintArray() public view returns(uint){... */\n    tag_25:\n        /* \"contracts/Programs/Error.sol\":573:577  uint */\n      0x00\n        /* \"contracts/Programs/Error.sol\":599:605  uint i */\n      dup1\n        /* \"contracts/Programs/Error.sol\":622:623  0 */\n      0x00\n        /* \"contracts/Programs/Error.sol\":620:623  i=0 */\n      swap1\n      pop\n        /* \"contracts/Programs/Error.sol\":626:627  l */\n      sload(0x01)\n        /* \"contracts/Programs/Error.sol\":624:625  i */\n      dup2\n        /* \"contracts/Programs/Error.sol\":624:627  i<l */\n      lt\n        /* \"contracts/Programs/Error.sol\":616:670  for(i=0;i<l;i++){... */\n      iszero\n      tag_49\n      jumpi\n        /* \"contracts/Programs/Error.sol\":654:655  a */\n      0x00\n        /* \"contracts/Programs/Error.sol\":656:657  i */\n      dup2\n        /* \"contracts/Programs/Error.sol\":654:658  a[i] */\n      dup2\n      sload\n      dup2\n      lt\n      tag_51\n      jumpi\n      tag_52\n      tag_53\n      jump\t// in\n    tag_52:\n    tag_51:\n      swap1\n      0x00\n      mstore\n      keccak256(0x00, 0x20)\n      add\n      sload\n        /* \"contracts/Programs/Error.sol\":647:658  return a[i] */\n      swap2\n      pop\n      pop\n      jump(tag_47)\n        /* \"contracts/Programs/Error.sol\":616:670  for(i=0;i<l;i++){... */\n    tag_49:\n        /* \"contracts/Programs/Error.sol\":578:701  {... */\n      pop\n        /* \"contracts/Programs/Error.sol\":531:701  function PrintArray() public view returns(uint){... */\n    tag_47:\n      swap1\n      jump\t// out\n        /* \"contracts/Programs/Error.sol\":118:140  uint public l=a.length */\n    tag_29:\n      sload(0x01)\n      dup2\n      jump\t// out\n        /* \"contracts/Programs/Error.sol\":81:111  uint [] public a = [1,2,3,4,4] */\n    tag_33:\n      0x00\n      dup2\n      dup2\n      sload\n      dup2\n      lt\n      tag_57\n      jumpi\n      0x00\n      dup1\n      revert\n    tag_57:\n      swap1\n      0x00\n      mstore\n      keccak256(0x00, 0x20)\n      add\n      0x00\n      swap2\n      pop\n      swap1\n      pop\n      sload\n      dup2\n      jump\t// out\n        /* \"contracts/Programs/Error.sol\":147:163  uint public test */\n    tag_36:\n      sload(0x02)\n      dup2\n      jump\t// out\n        /* \"#utility.yul\":88:205   */\n    tag_60:\n        /* \"#utility.yul\":197:198   */\n      0x00\n        /* \"#utility.yul\":194:195   */\n      dup1\n        /* \"#utility.yul\":187:199   */\n      revert\n        /* \"#utility.yul\":334:411   */\n    tag_62:\n        /* \"#utility.yul\":371:378   */\n      0x00\n        /* \"#utility.yul\":400:405   */\n      dup2\n        /* \"#utility.yul\":389:405   */\n      swap1\n      pop\n        /* \"#utility.yul\":334:411   */\n      swap2\n      swap1\n      pop\n      jump\t// out\n        /* \"#utility.yul\":417:539   */\n    tag_63:\n        /* \"#utility.yul\":490:514   */\n      tag_82\n        /* \"#utility.yul\":508:513   */\n      dup2\n        /* \"#utility.yul\":490:514   */\n      tag_62\n      jump\t// in\n    tag_82:\n        /* \"#utility.yul\":483:488   */\n      dup2\n        /* \"#utility.yul\":480:515   */\n      eq\n        /* \"#utility.yul\":470:533   */\n      tag_83\n      jumpi\n        /* \"#utility.yul\":529:530   */\n      0x00\n        /* \"#utility.yul\":526:527   */\n      dup1\n        /* \"#utility.yul\":519:531   */\n      revert\n        /* \"#utility.yul\":470:533   */\n    tag_83:\n        /* \"#utility.yul\":417:539   */\n      pop\n      jump\t// out\n        /* \"#utility.yul\":545:684   */\n    tag_64:\n        /* \"#utility.yul\":591:596   */\n      0x00\n        /* \"#utility.yul\":629:635   */\n      dup2\n        /* \"#utility.yul\":616:636   */\n      calldataload\n        /* \"#utility.yul\":607:636   */\n      swap1\n      pop\n        /* \"#utility.yul\":645:678   */\n      tag_85\n        /* \"#utility.yul\":672:677   */\n      dup2\n        /* \"#utility.yul\":645:678   */\n      tag_63\n      jump\t// in\n    tag_85:\n        /* \"#utility.yul\":545:684   */\n      swap3\n      swap2\n      pop\n      pop\n      jump\t// out\n        /* \"#utility.yul\":690:1019   */\n    tag_13:\n        /* \"#utility.yul\":749:755   */\n      0x00\n        /* \"#utility.yul\":798:800   */\n      0x20\n        /* \"#utility.yul\":786:795   */\n      dup3\n        /* \"#utility.yul\":777:784   */\n      dup5\n        /* \"#utility.yul\":773:796   */\n      sub\n        /* \"#utility.yul\":769:801   */\n      slt\n        /* \"#utility.yul\":766:885   */\n      iszero\n      tag_87\n      jumpi\n        /* \"#utility.yul\":804:883   */\n      tag_88\n      tag_60\n      jump\t// in\n    tag_88:\n        /* \"#utility.yul\":766:885   */\n    tag_87:\n        /* \"#utility.yul\":924:925   */\n      0x00\n        /* \"#utility.yul\":949:1002   */\n      tag_89\n        /* \"#utility.yul\":994:1001   */\n      dup5\n        /* \"#utility.yul\":985:991   */\n      dup3\n        /* \"#utility.yul\":974:983   */\n      dup6\n        /* \"#utility.yul\":970:992   */\n      add\n        /* \"#utility.yul\":949:1002   */\n      tag_64\n      jump\t// in\n    tag_89:\n        /* \"#utility.yul\":939:1002   */\n      swap2\n      pop\n        /* \"#utility.yul\":895:1012   */\n      pop\n        /* \"#utility.yul\":690:1019   */\n      swap3\n      swap2\n      pop\n      pop\n      jump\t// out\n        /* \"#utility.yul\":1025:1115   */\n    tag_65:\n        /* \"#utility.yul\":1059:1066   */\n      0x00\n        /* \"#utility.yul\":1102:1107   */\n      dup2\n        /* \"#utility.yul\":1095:1108   */\n      iszero\n        /* \"#utility.yul\":1088:1109   */\n      iszero\n        /* \"#utility.yul\":1077:1109   */\n      swap1\n      pop\n        /* \"#utility.yul\":1025:1115   */\n      swap2\n      swap1\n      pop\n      jump\t// out\n        /* \"#utility.yul\":1121:1237   */\n    tag_66:\n        /* \"#utility.yul\":1191:1212   */\n      tag_92\n        /* \"#utility.yul\":1206:1211   */\n      dup2\n        /* \"#utility.yul\":1191:1212   */\n      tag_65\n      jump\t// in\n    tag_92:\n        /* \"#utility.yul\":1184:1189   */\n      dup2\n        /* \"#utility.yul\":1181:1213   */\n      eq\n        /* \"#utility.yul\":1171:1231   */\n      tag_93\n      jumpi\n        /* \"#utility.yul\":1227:1228   */\n      0x00\n        /* \"#utility.yul\":1224:1225   */\n      dup1\n        /* \"#utility.yul\":1217:1229   */\n      revert\n        /* \"#utility.yul\":1171:1231   */\n    tag_93:\n        /* \"#utility.yul\":1121:1237   */\n      pop\n      jump\t// out\n        /* \"#utility.yul\":1243:1376   */\n    tag_67:\n        /* \"#utility.yul\":1286:1291   */\n      0x00\n        /* \"#utility.yul\":1324:1330   */\n      dup2\n        /* \"#utility.yul\":1311:1331   */\n      calldataload\n        /* \"#utility.yul\":1302:1331   */\n      swap1\n      pop\n        /* \"#utility.yul\":1340:1370   */\n      tag_95\n        /* \"#utility.yul\":1364:1369   */\n      dup2\n        /* \"#utility.yul\":1340:1370   */\n      tag_66\n      jump\t// in\n    tag_95:\n        /* \"#utility.yul\":1243:1376   */\n      swap3\n      swap2\n      pop\n      pop\n      jump\t// out\n        /* \"#utility.yul\":1382:1850   */\n    tag_20:\n        /* \"#utility.yul\":1447:1453   */\n      0x00\n        /* \"#utility.yul\":1455:1461   */\n      dup1\n        /* \"#utility.yul\":1504:1506   */\n      0x40\n        /* \"#utility.yul\":1492:1501   */\n      dup4\n        /* \"#utility.yul\":1483:1490   */\n      dup6\n        /* \"#utility.yul\":1479:1502   */\n      sub\n        /* \"#utility.yul\":1475:1507   */\n      slt\n        /* \"#utility.yul\":1472:1591   */\n      iszero\n      tag_97\n      jumpi\n        /* \"#utility.yul\":1510:1589   */\n      tag_98\n      tag_60\n      jump\t// in\n    tag_98:\n        /* \"#utility.yul\":1472:1591   */\n    tag_97:\n        /* \"#utility.yul\":1630:1631   */\n      0x00\n        /* \"#utility.yul\":1655:1708   */\n      tag_99\n        /* \"#utility.yul\":1700:1707   */\n      dup6\n        /* \"#utility.yul\":1691:1697   */\n      dup3\n        /* \"#utility.yul\":1680:1689   */\n      dup7\n        /* \"#utility.yul\":1676:1698   */\n      add\n        /* \"#utility.yul\":1655:1708   */\n      tag_64\n      jump\t// in\n    tag_99:\n        /* \"#utility.yul\":1645:1708   */\n      swap3\n      pop\n        /* \"#utility.yul\":1601:1718   */\n      pop\n        /* \"#utility.yul\":1757:1759   */\n      0x20\n        /* \"#utility.yul\":1783:1833   */\n      tag_100\n        /* \"#utility.yul\":1825:1832   */\n      dup6\n        /* \"#utility.yul\":1816:1822   */\n      dup3\n        /* \"#utility.yul\":1805:1814   */\n      dup7\n        /* \"#utility.yul\":1801:1823   */\n      add\n        /* \"#utility.yul\":1783:1833   */\n      tag_67\n      jump\t// in\n    tag_100:\n        /* \"#utility.yul\":1773:1833   */\n      swap2\n      pop\n        /* \"#utility.yul\":1728:1843   */\n      pop\n        /* \"#utility.yul\":1382:1850   */\n      swap3\n      pop\n      swap3\n      swap1\n      pop\n      jump\t// out\n        /* \"#utility.yul\":1856:1974   */\n    tag_68:\n        /* \"#utility.yul\":1943:1967   */\n      tag_102\n        /* \"#utility.yul\":1961:1966   */\n      dup2\n        /* \"#utility.yul\":1943:1967   */\n      tag_62\n      jump\t// in\n    tag_102:\n        /* \"#utility.yul\":1938:1941   */\n      dup3\n        /* \"#utility.yul\":1931:1968   */\n      mstore\n        /* \"#utility.yul\":1856:1974   */\n      pop\n      pop\n      jump\t// out\n        /* \"#utility.yul\":1980:2089   */\n    tag_69:\n        /* \"#utility.yul\":2061:2082   */\n      tag_104\n        /* \"#utility.yul\":2076:2081   */\n      dup2\n        /* \"#utility.yul\":2061:2082   */\n      tag_65\n      jump\t// in\n    tag_104:\n        /* \"#utility.yul\":2056:2059   */\n      dup3\n        /* \"#utility.yul\":2049:2083   */\n      mstore\n        /* \"#utility.yul\":1980:2089   */\n      pop\n      pop\n      jump\t// out\n        /* \"#utility.yul\":2095:2415   */\n    tag_23:\n        /* \"#utility.yul\":2210:2214   */\n      0x00\n        /* \"#utility.yul\":2248:2250   */\n      0x40\n        /* \"#utility.yul\":2237:2246   */\n      dup3\n        /* \"#utility.yul\":2233:2251   */\n      add\n        /* \"#utility.yul\":2225:2251   */\n      swap1\n      pop\n        /* \"#utility.yul\":2261:2332   */\n      tag_106\n        /* \"#utility.yul\":2329:2330   */\n      0x00\n        /* \"#utility.yul\":2318:2327   */\n      dup4\n        /* \"#utility.yul\":2314:2331   */\n      add\n        /* \"#utility.yul\":2305:2311   */\n      dup6\n        /* \"#utility.yul\":2261:2332   */\n      tag_68\n      jump\t// in\n    tag_106:\n        /* \"#utility.yul\":2342:2408   */\n      tag_107\n        /* \"#utility.yul\":2404:2406   */\n      0x20\n        /* \"#utility.yul\":2393:2402   */\n      dup4\n        /* \"#utility.yul\":2389:2407   */\n      add\n        /* \"#utility.yul\":2380:2386   */\n      dup5\n        /* \"#utility.yul\":2342:2408   */\n      tag_69\n      jump\t// in\n    tag_107:\n        /* \"#utility.yul\":2095:2415   */\n      swap4\n      swap3\n      pop\n      pop\n      pop\n      jump\t// out\n        /* \"#utility.yul\":2421:2643   */\n    tag_27:\n        /* \"#utility.yul\":2514:2518   */\n      0x00\n        /* \"#utility.yul\":2552:2554   */\n      0x20\n        /* \"#utility.yul\":2541:2550   */\n      dup3\n        /* \"#utility.yul\":2537:2555   */\n      add\n        /* \"#utility.yul\":2529:2555   */\n      swap1\n      pop\n        /* \"#utility.yul\":2565:2636   */\n      tag_109\n        /* \"#utility.yul\":2633:2634   */\n      0x00\n        /* \"#utility.yul\":2622:2631   */\n      dup4\n        /* \"#utility.yul\":2618:2635   */\n      add\n        /* \"#utility.yul\":2609:2615   */\n      dup5\n        /* \"#utility.yul\":2565:2636   */\n      tag_68\n      jump\t// in\n    tag_109:\n        /* \"#utility.yul\":2421:2643   */\n      swap3\n      swap2\n      pop\n      pop\n      jump\t// out\n        /* \"#utility.yul\":2649:2818   */\n    tag_70:\n        /* \"#utility.yul\":2733:2744   */\n      0x00\n        /* \"#utility.yul\":2767:2773   */\n      dup3\n        /* \"#utility.yul\":2762:2765   */\n      dup3\n        /* \"#utility.yul\":2755:2774   */\n      mstore\n        /* \"#utility.yul\":2807:2811   */\n      0x20\n        /* \"#utility.yul\":2802:2805   */\n      dup3\n        /* \"#utility.yul\":2798:2812   */\n      add\n        /* \"#utility.yul\":2783:2812   */\n      swap1\n      pop\n        /* \"#utility.yul\":2649:2818   */\n      swap3\n      swap2\n      pop\n      pop\n      jump\t// out\n        /* \"#utility.yul\":2824:2979   */\n    tag_71:\n        /* \"#utility.yul\":2964:2971   */\n      0x5f6a3e3230000000000000000000000000000000000000000000000000000000\n        /* \"#utility.yul\":2960:2961   */\n      0x00\n        /* \"#utility.yul\":2952:2958   */\n      dup3\n        /* \"#utility.yul\":2948:2962   */\n      add\n        /* \"#utility.yul\":2941:2972   */\n      mstore\n        /* \"#utility.yul\":2824:2979   */\n      pop\n      jump\t// out\n        /* \"#utility.yul\":2985:3350   */\n    tag_72:\n        /* \"#utility.yul\":3127:3130   */\n      0x00\n        /* \"#utility.yul\":3148:3214   */\n      tag_113\n        /* \"#utility.yul\":3212:3213   */\n      0x05\n        /* \"#utility.yul\":3207:3210   */\n      dup4\n        /* \"#utility.yul\":3148:3214   */\n      tag_70\n      jump\t// in\n    tag_113:\n        /* \"#utility.yul\":3141:3214   */\n      swap2\n      pop\n        /* \"#utility.yul\":3223:3316   */\n      tag_114\n        /* \"#utility.yul\":3312:3315   */\n      dup3\n        /* \"#utility.yul\":3223:3316   */\n      tag_71\n      jump\t// in\n    tag_114:\n        /* \"#utility.yul\":3341:3343   */\n      0x20\n        /* \"#utility.yul\":3336:3339   */\n      dup3\n        /* \"#utility.yul\":3332:3344   */\n      add\n        /* \"#utility.yul\":3325:3344   */\n      swap1\n      pop\n        /* \"#utility.yul\":2985:3350   */\n      swap2\n      swap1\n      pop\n      jump\t// out\n        /* \"#utility.yul\":3356:3775   */\n    tag_41:\n        /* \"#utility.yul\":3522:3526   */\n      0x00\n        /* \"#utility.yul\":3560:3562   */\n      0x20\n        /* \"#utility.yul\":3549:3558   */\n      dup3\n        /* \"#utility.yul\":3545:3563   */\n      add\n        /* \"#utility.yul\":3537:3563   */\n      swap1\n      pop\n        /* \"#utility.yul\":3609:3618   */\n      dup2\n        /* \"#utility.yul\":3603:3607   */\n      dup2\n        /* \"#utility.yul\":3599:3619   */\n      sub\n        /* \"#utility.yul\":3595:3596   */\n      0x00\n        /* \"#utility.yul\":3584:3593   */\n      dup4\n        /* \"#utility.yul\":3580:3597   */\n      add\n        /* \"#utility.yul\":3573:3620   */\n      mstore\n        /* \"#utility.yul\":3637:3768   */\n      tag_116\n        /* \"#utility.yul\":3763:3767   */\n      dup2\n        /* \"#utility.yul\":3637:3768   */\n      tag_72\n      jump\t// in\n    tag_116:\n        /* \"#utility.yul\":3629:3768   */\n      swap1\n      pop\n        /* \"#utility.yul\":3356:3775   */\n      swap2\n      swap1\n      pop\n      jump\t// out\n        /* \"#utility.yul\":3781:3935   */\n    tag_73:\n        /* \"#utility.yul\":3921:3927   */\n      0x693e313000000000000000000000000000000000000000000000000000000000\n        /* \"#utility.yul\":3917:3918   */\n      0x00\n        /* \"#utility.yul\":3909:3915   */\n      dup3\n        /* \"#utility.yul\":3905:3919   */\n      add\n        /* \"#utility.yul\":3898:3928   */\n      mstore\n        /* \"#utility.yul\":3781:3935   */\n      pop\n      jump\t// out\n        /* \"#utility.yul\":3941:4306   */\n    tag_74:\n        /* \"#utility.yul\":4083:4086   */\n      0x00\n        /* \"#utility.yul\":4104:4170   */\n      tag_119\n        /* \"#utility.yul\":4168:4169   */\n      0x04\n        /* \"#utility.yul\":4163:4166   */\n      dup4\n        /* \"#utility.yul\":4104:4170   */\n      tag_70\n      jump\t// in\n    tag_119:\n        /* \"#utility.yul\":4097:4170   */\n      swap2\n      pop\n        /* \"#utility.yul\":4179:4272   */\n      tag_120\n        /* \"#utility.yul\":4268:4271   */\n      dup3\n        /* \"#utility.yul\":4179:4272   */\n      tag_73\n      jump\t// in\n    tag_120:\n        /* \"#utility.yul\":4297:4299   */\n      0x20\n        /* \"#utility.yul\":4292:4295   */\n      dup3\n        /* \"#utility.yul\":4288:4300   */\n      add\n        /* \"#utility.yul\":4281:4300   */\n      swap1\n      pop\n        /* \"#utility.yul\":3941:4306   */\n      swap2\n      swap1\n      pop\n      jump\t// out\n        /* \"#utility.yul\":4312:4731   */\n    tag_45:\n        /* \"#utility.yul\":4478:4482   */\n      0x00\n        /* \"#utility.yul\":4516:4518   */\n      0x20\n        /* \"#utility.yul\":4505:4514   */\n      dup3\n        /* \"#utility.yul\":4501:4519   */\n      add\n        /* \"#utility.yul\":4493:4519   */\n      swap1\n      pop\n        /* \"#utility.yul\":4565:4574   */\n      dup2\n        /* \"#utility.yul\":4559:4563   */\n      dup2\n        /* \"#utility.yul\":4555:4575   */\n      sub\n        /* \"#utility.yul\":4551:4552   */\n      0x00\n        /* \"#utility.yul\":4540:4549   */\n      dup4\n        /* \"#utility.yul\":4536:4553   */\n      add\n        /* \"#utility.yul\":4529:4576   */\n      mstore\n        /* \"#utility.yul\":4593:4724   */\n      tag_122\n        /* \"#utility.yul\":4719:4723   */\n      dup2\n        /* \"#utility.yul\":4593:4724   */\n      tag_74\n      jump\t// in\n    tag_122:\n        /* \"#utility.yul\":4585:4724   */\n      swap1\n      pop\n        /* \"#utility.yul\":4312:4731   */\n      swap2\n      swap1\n      pop\n      jump\t// out\n        /* \"#utility.yul\":4737:4917   */\n    tag_53:\n        /* \"#utility.yul\":4785:4862   */\n      0x4e487b7100000000000000000000000000000000000000000000000000000000\n        /* \"#utility.yul\":4782:4783   */\n      0x00\n        /* \"#utility.yul\":4775:4863   */\n      mstore\n        /* \"#utility.yul\":4882:4886   */\n      0x32\n        /* \"#utility.yul\":4879:4880   */\n      0x04\n        /* \"#utility.yul\":4872:4887   */\n      mstore\n        /* \"#utility.yul\":4906:4910   */\n      0x24\n        /* \"#utility.yul\":4903:4904   */\n      0x00\n        /* \"#utility.yul\":4896:4911   */\n      revert\n\n    auxdata: 0xa2646970667358221220abbe24011c493eefebfd7a3826bb5e098439fabf44db72642372b722205702ff64736f6c63430008120033\n}\n",
				"bytecode": {
					"linkReferences": {},
					"object": "60806040526040518060a00160405280600160ff168152602001600260ff168152602001600360ff168152602001600460ff168152602001600460ff16815250600090600561004f92919061006b565b5060008054905060015534801561006557600080fd5b506100da565b8280548282559060005260206000209081019282156100ac579160200282015b828111156100ab578251829060ff1690559160200191906001019061008b565b5b5090506100b991906100bd565b5090565b5b808211156100d65760008160009055506001016100be565b5090565b61051e806100e96000396000f3fe608060405234801561001057600080fd5b506004361061007d5760003560e01c8063b4647d521161005b578063b4647d52146100eb578063ece866b914610109578063f0fdf83414610127578063f8a8fd6d146101575761007d565b806320987767146100825780633d37a08b1461009e578063822e8f9f146100ba575b600080fd5b61009c600480360381019061009791906102c9565b610175565b005b6100b860048036038101906100b391906102c9565b6101c3565b005b6100d460048036038101906100cf919061032e565b610211565b6040516100e292919061038c565b60405180910390f35b6100f3610221565b60405161010091906103b5565b60405180910390f35b61011161025e565b60405161011e91906103b5565b60405180910390f35b610141600480360381019061013c91906102c9565b610264565b60405161014e91906103b5565b60405180910390f35b61015f610288565b60405161016c91906103b5565b60405180910390f35b60148111156101b9576040517f08c379a00000000000000000000000000000000000000000000000000000000081526004016101b09061042d565b60405180910390fd5b8060028190555050565b600a811115610207576040517f08c379a00000000000000000000000000000000000000000000000000000000081526004016101fe90610499565b60405180910390fd5b8060028190555050565b6000808383915091509250929050565b600080600090506001548110156102595760008181548110610246576102456104b9565b5b906000526020600020015491505061025b565b505b90565b60015481565b6000818154811061027457600080fd5b906000526020600020016000915090505481565b60025481565b600080fd5b6000819050919050565b6102a681610293565b81146102b157600080fd5b50565b6000813590506102c38161029d565b92915050565b6000602082840312156102df576102de61028e565b5b60006102ed848285016102b4565b91505092915050565b60008115159050919050565b61030b816102f6565b811461031657600080fd5b50565b60008135905061032881610302565b92915050565b600080604083850312156103455761034461028e565b5b6000610353858286016102b4565b925050602061036485828601610319565b9150509250929050565b61037781610293565b82525050565b610386816102f6565b82525050565b60006040820190506103a1600083018561036e565b6103ae602083018461037d565b9392505050565b60006020820190506103ca600083018461036e565b92915050565b600082825260208201905092915050565b7f5f6a3e3230000000000000000000000000000000000000000000000000000000600082015250565b60006104176005836103d0565b9150610422826103e1565b602082019050919050565b600060208201905081810360008301526104468161040a565b9050919050565b7f693e313000000000000000000000000000000000000000000000000000000000600082015250565b60006104836004836103d0565b915061048e8261044d565b602082019050919050565b600060208201905081810360008301526104b281610476565b9050919050565b7f4e487b7100000000000000000000000000000000000000000000000000000000600052603260045260246000fdfea2646970667358221220abbe24011c493eefebfd7a3826bb5e098439fabf44db72642372b722205702ff64736f6c63430008120033",
					"opcodes": "PUSH1 0x80 PUSH1 0x40 MSTORE PUSH1 0x40 MLOAD DUP1 PUSH1 0xA0 ADD PUSH1 0x40 MSTORE DUP1 PUSH1 0x1 PUSH1 0xFF AND DUP2 MSTORE PUSH1 0x20 ADD PUSH1 0x2 PUSH1 0xFF AND DUP2 MSTORE PUSH1 0x20 ADD PUSH1 0x3 PUSH1 0xFF AND DUP2 MSTORE PUSH1 0x20 ADD PUSH1 0x4 PUSH1 0xFF AND DUP2 MSTORE PUSH1 0x20 ADD PUSH1 0x4 PUSH1 0xFF AND DUP2 MSTORE POP PUSH1 0x0 SWAP1 PUSH1 0x5 PUSH2 0x4F SWAP3 SWAP2 SWAP1 PUSH2 0x6B JUMP JUMPDEST POP PUSH1 0x0 DUP1 SLOAD SWAP1 POP PUSH1 0x1 SSTORE CALLVALUE DUP1 ISZERO PUSH2 0x65 JUMPI PUSH1 0x0 DUP1 REVERT JUMPDEST POP PUSH2 0xDA JUMP JUMPDEST DUP3 DUP1 SLOAD DUP3 DUP3 SSTORE SWAP1 PUSH1 0x0 MSTORE PUSH1 0x20 PUSH1 0x0 KECCAK256 SWAP1 DUP2 ADD SWAP3 DUP3 ISZERO PUSH2 0xAC JUMPI SWAP2 PUSH1 0x20 MUL DUP3 ADD JUMPDEST DUP3 DUP2 GT ISZERO PUSH2 0xAB JUMPI DUP3 MLOAD DUP3 SWAP1 PUSH1 0xFF AND SWAP1 SSTORE SWAP2 PUSH1 0x20 ADD SWAP2 SWAP1 PUSH1 0x1 ADD SWAP1 PUSH2 0x8B JUMP JUMPDEST JUMPDEST POP SWAP1 POP PUSH2 0xB9 SWAP2 SWAP1 PUSH2 0xBD JUMP JUMPDEST POP SWAP1 JUMP JUMPDEST JUMPDEST DUP1 DUP3 GT ISZERO PUSH2 0xD6 JUMPI PUSH1 0x0 DUP2 PUSH1 0x0 SWAP1 SSTORE POP PUSH1 0x1 ADD PUSH2 0xBE JUMP JUMPDEST POP SWAP1 JUMP JUMPDEST PUSH2 0x51E DUP1 PUSH2 0xE9 PUSH1 0x0 CODECOPY PUSH1 0x0 RETURN INVALID PUSH1 0x80 PUSH1 0x40 MSTORE CALLVALUE DUP1 ISZERO PUSH2 0x10 JUMPI PUSH1 0x0 DUP1 REVERT JUMPDEST POP PUSH1 0x4 CALLDATASIZE LT PUSH2 0x7D JUMPI PUSH1 0x0 CALLDATALOAD PUSH1 0xE0 SHR DUP1 PUSH4 0xB4647D52 GT PUSH2 0x5B JUMPI DUP1 PUSH4 0xB4647D52 EQ PUSH2 0xEB JUMPI DUP1 PUSH4 0xECE866B9 EQ PUSH2 0x109 JUMPI DUP1 PUSH4 0xF0FDF834 EQ PUSH2 0x127 JUMPI DUP1 PUSH4 0xF8A8FD6D EQ PUSH2 0x157 JUMPI PUSH2 0x7D JUMP JUMPDEST DUP1 PUSH4 0x20987767 EQ PUSH2 0x82 JUMPI DUP1 PUSH4 0x3D37A08B EQ PUSH2 0x9E JUMPI DUP1 PUSH4 0x822E8F9F EQ PUSH2 0xBA JUMPI JUMPDEST PUSH1 0x0 DUP1 REVERT JUMPDEST PUSH2 0x9C PUSH1 0x4 DUP1 CALLDATASIZE SUB DUP2 ADD SWAP1 PUSH2 0x97 SWAP2 SWAP1 PUSH2 0x2C9 JUMP JUMPDEST PUSH2 0x175 JUMP JUMPDEST STOP JUMPDEST PUSH2 0xB8 PUSH1 0x4 DUP1 CALLDATASIZE SUB DUP2 ADD SWAP1 PUSH2 0xB3 SWAP2 SWAP1 PUSH2 0x2C9 JUMP JUMPDEST PUSH2 0x1C3 JUMP JUMPDEST STOP JUMPDEST PUSH2 0xD4 PUSH1 0x4 DUP1 CALLDATASIZE SUB DUP2 ADD SWAP1 PUSH2 0xCF SWAP2 SWAP1 PUSH2 0x32E JUMP JUMPDEST PUSH2 0x211 JUMP JUMPDEST PUSH1 0x40 MLOAD PUSH2 0xE2 SWAP3 SWAP2 SWAP1 PUSH2 0x38C JUMP JUMPDEST PUSH1 0x40 MLOAD DUP1 SWAP2 SUB SWAP1 RETURN JUMPDEST PUSH2 0xF3 PUSH2 0x221 JUMP JUMPDEST PUSH1 0x40 MLOAD PUSH2 0x100 SWAP2 SWAP1 PUSH2 0x3B5 JUMP JUMPDEST PUSH1 0x40 MLOAD DUP1 SWAP2 SUB SWAP1 RETURN JUMPDEST PUSH2 0x111 PUSH2 0x25E JUMP JUMPDEST PUSH1 0x40 MLOAD PUSH2 0x11E SWAP2 SWAP1 PUSH2 0x3B5 JUMP JUMPDEST PUSH1 0x40 MLOAD DUP1 SWAP2 SUB SWAP1 RETURN JUMPDEST PUSH2 0x141 PUSH1 0x4 DUP1 CALLDATASIZE SUB DUP2 ADD SWAP1 PUSH2 0x13C SWAP2 SWAP1 PUSH2 0x2C9 JUMP JUMPDEST PUSH2 0x264 JUMP JUMPDEST PUSH1 0x40 MLOAD PUSH2 0x14E SWAP2 SWAP1 PUSH2 0x3B5 JUMP JUMPDEST PUSH1 0x40 MLOAD DUP1 SWAP2 SUB SWAP1 RETURN JUMPDEST PUSH2 0x15F PUSH2 0x288 JUMP JUMPDEST PUSH1 0x40 MLOAD PUSH2 0x16C SWAP2 SWAP1 PUSH2 0x3B5 JUMP JUMPDEST PUSH1 0x40 MLOAD DUP1 SWAP2 SUB SWAP1 RETURN JUMPDEST PUSH1 0x14 DUP2 GT ISZERO PUSH2 0x1B9 JUMPI PUSH1 0x40 MLOAD PUSH32 0x8C379A000000000000000000000000000000000000000000000000000000000 DUP2 MSTORE PUSH1 0x4 ADD PUSH2 0x1B0 SWAP1 PUSH2 0x42D JUMP JUMPDEST PUSH1 0x40 MLOAD DUP1 SWAP2 SUB SWAP1 REVERT JUMPDEST DUP1 PUSH1 0x2 DUP2 SWAP1 SSTORE POP POP JUMP JUMPDEST PUSH1 0xA DUP2 GT ISZERO PUSH2 0x207 JUMPI PUSH1 0x40 MLOAD PUSH32 0x8C379A000000000000000000000000000000000000000000000000000000000 DUP2 MSTORE PUSH1 0x4 ADD PUSH2 0x1FE SWAP1 PUSH2 0x499 JUMP JUMPDEST PUSH1 0x40 MLOAD DUP1 SWAP2 SUB SWAP1 REVERT JUMPDEST DUP1 PUSH1 0x2 DUP2 SWAP1 SSTORE POP POP JUMP JUMPDEST PUSH1 0x0 DUP1 DUP4 DUP4 SWAP2 POP SWAP2 POP SWAP3 POP SWAP3 SWAP1 POP JUMP JUMPDEST PUSH1 0x0 DUP1 PUSH1 0x0 SWAP1 POP PUSH1 0x1 SLOAD DUP2 LT ISZERO PUSH2 0x259 JUMPI PUSH1 0x0 DUP2 DUP2 SLOAD DUP2 LT PUSH2 0x246 JUMPI PUSH2 0x245 PUSH2 0x4B9 JUMP JUMPDEST JUMPDEST SWAP1 PUSH1 0x0 MSTORE PUSH1 0x20 PUSH1 0x0 KECCAK256 ADD SLOAD SWAP2 POP POP PUSH2 0x25B JUMP JUMPDEST POP JUMPDEST SWAP1 JUMP JUMPDEST PUSH1 0x1 SLOAD DUP2 JUMP JUMPDEST PUSH1 0x0 DUP2 DUP2 SLOAD DUP2 LT PUSH2 0x274 JUMPI PUSH1 0x0 DUP1 REVERT JUMPDEST SWAP1 PUSH1 0x0 MSTORE PUSH1 0x20 PUSH1 0x0 KECCAK256 ADD PUSH1 0x0 SWAP2 POP SWAP1 POP SLOAD DUP2 JUMP JUMPDEST PUSH1 0x2 SLOAD DUP2 JUMP JUMPDEST PUSH1 0x0 DUP1 REVERT JUMPDEST PUSH1 0x0 DUP2 SWAP1 POP SWAP2 SWAP1 POP JUMP JUMPDEST PUSH2 0x2A6 DUP2 PUSH2 0x293 JUMP JUMPDEST DUP2 EQ PUSH2 0x2B1 JUMPI PUSH1 0x0 DUP1 REVERT JUMPDEST POP JUMP JUMPDEST PUSH1 0x0 DUP2 CALLDATALOAD SWAP1 POP PUSH2 0x2C3 DUP2 PUSH2 0x29D JUMP JUMPDEST SWAP3 SWAP2 POP POP JUMP JUMPDEST PUSH1 0x0 PUSH1 0x20 DUP3 DUP5 SUB SLT ISZERO PUSH2 0x2DF JUMPI PUSH2 0x2DE PUSH2 0x28E JUMP JUMPDEST JUMPDEST PUSH1 0x0 PUSH2 0x2ED DUP5 DUP3 DUP6 ADD PUSH2 0x2B4 JUMP JUMPDEST SWAP2 POP POP SWAP3 SWAP2 POP POP JUMP JUMPDEST PUSH1 0x0 DUP2 ISZERO ISZERO SWAP1 POP SWAP2 SWAP1 POP JUMP JUMPDEST PUSH2 0x30B DUP2 PUSH2 0x2F6 JUMP JUMPDEST DUP2 EQ PUSH2 0x316 JUMPI PUSH1 0x0 DUP1 REVERT JUMPDEST POP JUMP JUMPDEST PUSH1 0x0 DUP2 CALLDATALOAD SWAP1 POP PUSH2 0x328 DUP2 PUSH2 0x302 JUMP JUMPDEST SWAP3 SWAP2 POP POP JUMP JUMPDEST PUSH1 0x0 DUP1 PUSH1 0x40 DUP4 DUP6 SUB SLT ISZERO PUSH2 0x345 JUMPI PUSH2 0x344 PUSH2 0x28E JUMP JUMPDEST JUMPDEST PUSH1 0x0 PUSH2 0x353 DUP6 DUP3 DUP7 ADD PUSH2 0x2B4 JUMP JUMPDEST SWAP3 POP POP PUSH1 0x20 PUSH2 0x364 DUP6 DUP3 DUP7 ADD PUSH2 0x319 JUMP JUMPDEST SWAP2 POP POP SWAP3 POP SWAP3 SWAP1 POP JUMP JUMPDEST PUSH2 0x377 DUP2 PUSH2 0x293 JUMP JUMPDEST DUP3 MSTORE POP POP JUMP JUMPDEST PUSH2 0x386 DUP2 PUSH2 0x2F6 JUMP JUMPDEST DUP3 MSTORE POP POP JUMP JUMPDEST PUSH1 0x0 PUSH1 0x40 DUP3 ADD SWAP1 POP PUSH2 0x3A1 PUSH1 0x0 DUP4 ADD DUP6 PUSH2 0x36E JUMP JUMPDEST PUSH2 0x3AE PUSH1 0x20 DUP4 ADD DUP5 PUSH2 0x37D JUMP JUMPDEST SWAP4 SWAP3 POP POP POP JUMP JUMPDEST PUSH1 0x0 PUSH1 0x20 DUP3 ADD SWAP1 POP PUSH2 0x3CA PUSH1 0x0 DUP4 ADD DUP5 PUSH2 0x36E JUMP JUMPDEST SWAP3 SWAP2 POP POP JUMP JUMPDEST PUSH1 0x0 DUP3 DUP3 MSTORE PUSH1 0x20 DUP3 ADD SWAP1 POP SWAP3 SWAP2 POP POP JUMP JUMPDEST PUSH32 0x5F6A3E3230000000000000000000000000000000000000000000000000000000 PUSH1 0x0 DUP3 ADD MSTORE POP JUMP JUMPDEST PUSH1 0x0 PUSH2 0x417 PUSH1 0x5 DUP4 PUSH2 0x3D0 JUMP JUMPDEST SWAP2 POP PUSH2 0x422 DUP3 PUSH2 0x3E1 JUMP JUMPDEST PUSH1 0x20 DUP3 ADD SWAP1 POP SWAP2 SWAP1 POP JUMP JUMPDEST PUSH1 0x0 PUSH1 0x20 DUP3 ADD SWAP1 POP DUP2 DUP2 SUB PUSH1 0x0 DUP4 ADD MSTORE PUSH2 0x446 DUP2 PUSH2 0x40A JUMP JUMPDEST SWAP1 POP SWAP2 SWAP1 POP JUMP JUMPDEST PUSH32 0x693E313000000000000000000000000000000000000000000000000000000000 PUSH1 0x0 DUP3 ADD MSTORE POP JUMP JUMPDEST PUSH1 0x0 PUSH2 0x483 PUSH1 0x4 DUP4 PUSH2 0x3D0 JUMP JUMPDEST SWAP2 POP PUSH2 0x48E DUP3 PUSH2 0x44D JUMP JUMPDEST PUSH1 0x20 DUP3 ADD SWAP1 POP SWAP2 SWAP1 POP JUMP JUMPDEST PUSH1 0x0 PUSH1 0x20 DUP3 ADD SWAP1 POP DUP2 DUP2 SUB PUSH1 0x0 DUP4 ADD MSTORE PUSH2 0x4B2 DUP2 PUSH2 0x476 JUMP JUMPDEST SWAP1 POP SWAP2 SWAP1 POP JUMP JUMPDEST PUSH32 0x4E487B7100000000000000000000000000000000000000000000000000000000 PUSH1 0x0 MSTORE PUSH1 0x32 PUSH1 0x4 MSTORE PUSH1 0x24 PUSH1 0x0 REVERT INVALID LOG2 PUSH5 0x6970667358 0x22 SLT KECCAK256 0xAB 0xBE 0x24 ADD SHR 0x49 RETURNDATACOPY 0xEF 0xEB REVERT PUSH27 0x3826BB5E098439FABF44DB72642372B722205702FF64736F6C6343 STOP ADDMOD SLT STOP CALLER "
				},
				"gasEstimates": {
					"creation": {
						"codeDepositCost": "262000",
						"executionCost": "infinite",
						"totalCost": "infinite"
					},
					"external": {
						"PrintArray()": "6767",
						"a(uint256)": "infinite",
						"ck(uint256)": "22569",
						"l()": "2451",
						"returnMany(uint256,bool)": "infinite",
						"test()": "2495",
						"testRevert(uint256)": "22547"
					}
				},
				"methodIdentifiers": {
					"PrintArray()": "b4647d52",
					"a(uint256)": "f0fdf834",
					"ck(uint256)": "3d37a08b",
					"l()": "ece866b9",
					"returnMany(uint256,bool)": "822e8f9f",
					"test()": "f8a8fd6d",
					"testRevert(uint256)": "20987767"
				}
			},
			"storageLayout": {
				"storage": [
					{
						"astId": 10,
						"contract": "contracts/Programs/Error.sol:Error",
						"label": "a",
						"offset": 0,
						"slot": "0",
						"type": "t_array(t_uint256)dyn_storage"
					},
					{
						"astId": 14,
						"contract": "contracts/Programs/Error.sol:Error",
						"label": "l",
						"offset": 0,
						"slot": "1",
						"type": "t_uint256"
					},
					{
						"astId": 16,
						"contract": "contracts/Programs/Error.sol:Error",
						"label": "test",
						"offset": 0,
						"slot": "2",
						"type": "t_uint256"
					}
				],
				"types": {
					"t_array(t_uint256)dyn_storage": {
						"base": "t_uint256",
						"encoding": "dynamic_array",
						"label": "uint256[]",
						"numberOfBytes": "32"
					},
					"t_uint256": {
						"encoding": "inplace",
						"label": "uint256",
						"numberOfBytes": "32"
					}
				}
			},
			"userdoc": {
				"kind": "user",
				"methods": {},
				"version": 1
			}
		}
	}
}